:100000000C9468030C94AF130C94AF030C94AF03DF
:100010000C94AF030C94AF030C94AF030C94AF0398
:100020000C94AF030C94AF030C94AB290C947D2A71
:100030000C944C220C94AF030C94AF030C94AF03BC
:100040000C94AF030C94AF030C94AF030C94AF0368
:100050000C94AF030C94B4220C94AF030C94AF0334
:100060000C94AF030C94AF030C94AF030C94AF0348
:100070000C94AF030C94AF030C94AF030C94AF0338
:100080000C94AF030C94AF030C94AF030C94AF0328
:100090000C94AF030C94AF030C94AF030C94AF0318
:1000A0000C94AF030C94AF030C94AF035C055E0596
:1000B0006905600562056405660568056B056D05E3
:1000C0006F057A05710573057505770579057C055A
:1000D000EF17EF17211821185F187D18D919D919B2
:1000E000BF18D91958195819C919D919D919D219B4
:1000F0006519651965196519651965196519651910
:1001000065196519651965196519651965196519FF
:10011000761984198B1992199C196A1A6A1A7C1A11
:100120007C1A731A7C1A7C1A7C1A6A1A6A1A781A50
:100130007C1A7C1A781AEA2A112B092C112B092C0B
:100140005D2B802B092CD72BE62B290000002302E6
:100150003500340000001B012B0014001A000800B9
:1001600015001700060139000442166207430961B1
:100170000A001901E1001D001B000600190005001E
:100180006500E000000FE3000007E2002C002A00F9
:10019000025303530000000000000000460031003D
:1001A000130012000C0018001C0000003400330083
:1001B0000F720E000D710B00000065005200370039
:1001C00036001000110049004F0051005000380067
:1001D000015128004C0000003A003B003C003D006B
:1001E0003E00000000001E022E00260227023102FF
:1001F00000000000220225022F023002240200002B
:100200000000200223022F0230023502000001000C
:100210000000000000000000000000004400430057
:100220004200410040003F00470045005700610088
:1002300060005F002D020000530056005E005D006C
:100240005C001F020000670055005B005A00590067
:100250002102000058005400630062000100000009
:100260000000C35CC65CC55CC25CCA5CC95CF45C73
:10027000C45CC85CC75C0000CC5CCB5C00000000C8
:10028000000000000000000000000000CF5CD45C13
:10029000CE5CD25C00000000F600CD5CD35CD15C8B
:1002A000D05CF400F5000000010000000000000038
:1002B0000000000000000000F9000000F000000055
:1002C000F90000000000FA00F300F100F200FA006B
:1002D000000000000000A900A800AA000000B9006A
:1002E00000000000BB00AE00BC00B600B700005C20
:1002F00000000000000000000000000000000000FE
:1003000000000000000000000000000000000000ED
:1003100000000000000000000000000000000000DD
:1003200000000000000000000000000000000000CD
:1003300000000000000001000000000000000000BC
:10034000000000004B004D0052004A004B0000002E
:1003500000004E004F00510050004E000000000011
:10036000000000000000000000000000000000008D
:100370000000000000000000000000047F3F1F6438
:100380003214643214783C1E1E140A0522232526DA
:1003900028292A2C2D2F3032333536383A3B3D3E32
:1003A0004042434547494A4C4E5051535557595A7C
:1003B0005C5E6062646668696B6D6F717375777996
:1003C0007B7D7F81838587898A8C8E909294969895
:1003D0009A9C9E9FA1A3A5A7A8AAACAEAFB1B3B4A7
:1003E000B6B8B9BBBCBEBFC1C2C3C5C6C7C9CACBFC
:1003F000CCCDCED0D1D2D2D3D4D5D6D7D7D8D9D9C7
:10040000DADADBDBDBDCDCDCDCDCDDDDDDDDDCDC2F
:10041000DCDCDCDBDBDBDADAD9D9D8D7D7D6D5D44C
:10042000D3D2D2D1D0CECDCCCBCAC9C7C6C5C3C218
:10043000C1BFBEBCBBB9B8B6B4B3B1AFAEACAAA86D
:10044000A7A5A3A19F9E9C9A98969492908E8C8A21
:1004500089878583817F7D7B79777573716F6D6BFC
:100460006968666462605E5C5A5957555351504ED4
:100470004C4A4947454342403E3D3B3A3836353386
:1004800032302F2D2C2A292826252322FFAA7F55FA
:100490004000000000000000000000010101010117
:1004A000010101010202020202020202030303032C
:1004B00003030304040404040505050505060606F4
:1004C000060607070707080808080909090A0A0AAB
:1004D0000B0B0B0C0C0C0D0D0D0E0E0E0F0F101048
:1004E00010111112121313141415151616171718CC
:1004F0001819191A1A1B1C1C1D1D1E1F1F20212133
:1005000022232324252526272828292A2B2C2C2D75
:100510002E2F30313132333435363738393A3B3C8F
:100520003D3E3F404142434445464748494B4C4D80
:100530004E4F50525354555758595A5C5D5E606146
:1005400063646567686A6B6C6E6F717274767779D5
:100550007A7C7D7F8182848687898B8D8E90929430
:100560009597999B9D9FA1A2A4A6A8AAACAEB0B254
:10057000B4B6B9BBBDBFC1C3C5C8CACCCED0D3D534
:10058000D7DADCDEE1E3E6E8EAEDEFF2F4F7F9FCD6
:10059000FF04033000000012034500720067006F83
:1005A00000440061007300680000000C034F006D00
:1005B000006B006200640000000403090409023BB0
:1005C00000020100A0FA0904000001030101000972
:1005D00021110100012240000705810308000A09DA
:1005E000040100010300000009211101000122851E
:1005F000000705820320000A120110010000000814
:10060000EDFE606000010102030105010902A10184
:1006100085020901A1000509190129051500250117
:100620009505750181029501750381010501093068
:1006300009311581257F95027508810609381581D4
:10064000257F950175088106050C0A38021581255C
:100650007F950175088106C0C005010980A101854B
:10066000031601002603001A81002A8300751095E5
:10067000018100C0050C0901A101850416010026B5
:100680009C021A01002A9C02751095018100C00588
:10069000010906A101050719E029E71500250195C3
:1006A0000875018102950175088101050819012964
:1006B00005950575019102950175039101050719CD
:1006C0000029FF150026FF00950675088100C0006F
:1006D00011241FBECFEFDAE0DEBFCDBF04B603FEAC
:1006E00027C08091B1029091B202A091B302B09163
:1006F000B4028730904BA740B04BD1F41092B102B6
:100700001092B2021092B3021092B40214BE84B7D7
:10071000877F84BF0FB6F894A895809160008861A8
:1007200080936000109260000FBEE0E0F8E309954E
:1007300011E0A0E0B1E0E4E8F9E502C005900D9217
:10074000AA36B107D9F722E0AAE6B1E001C01D92AE
:10075000A13BB207E1F70E94D3260C94C02C0C9465
:1007600000000C9465040895CF92DF92EF92FF92FF
:100770006B017C010E94EC20909149028230B9F01B
:1007800028F4882341F0813061F022C08330A9F041
:100790008430C1F01DC090FF25C04FEF6FEF8CE19A
:1007A0001CC090FF1FC04FEF6FEF80E416C090FF9A
:1007B00019C04FEF60EB8BE010C090FF13C04FEFFC
:1007C0006FEF0AC090FF0EC04FEF6FEF8AEA05C0CF
:1007D00090FF08C04FEF60E080E00E94280E81E0AB
:1007E0000E949A10C701B601FF90EF90DF90CF9062
:1007F0000895CF93833C2CE5920708F445C0FB0194
:10080000853D2CE5920740F1843F9C45E9F58281C6
:10081000882301F180914902982F909590FB80F9EF
:10082000809349026091490270914A0280914B0283
:1008300090914C020E9462218091490280FF0AC07F
:1008400060911D0270911E0280911F029091200202
:100850000E949F1E80E019C082818823A9F0909198
:100860004902C92FC17090FF10C09E7F909349022A
:100870006091490270914A0280914B0290914C0222
:100880000E9462218C2F01C081E0CF91089581E008
:1008900010924A0210924B0210924C028160809397
:1008A00049026091490270914A0280914B029091F5
:1008B0004C020E9462210E9492104FEF6FEF8CE178
:1008C0000E94250E81E00C948F100E945E2160939F
:1008D000490270934A0280934B0290934C0260FF4E
:1008E0000AC00E949D104FEF6FEF8CE10E94280E0E
:1008F00081E00C949A1008950C94650481E00895A9
:100900000C94F9031F93CF93DF9300D000D01F9274
:10091000CDB7DEB749835A836B832091B7018981B4
:100920009A81211112C0662349F00E94BA1F182F24
:10093000682F89819A810E94631F03C00E948E1FC5
:10094000182F69817A81812F04C00E94BA1F6981A2
:100950007A810F900F900F900F900F90DF91CF91B1
:100960001F910C94E706FC014081518162817381E3
:1009700084810C9482040E943C21811102C00E9457
:10098000B5210C94B1030C94600908950C94C5042E
:100990000C94C6040E94581A0E94B3032FEF84E3FC
:1009A0009CE0215080409040E1F700C0000087E7C4
:1009B00097E790930108809300080C94DA220F9334
:1009C0001F93CF93DF938C010E94B304EC01B80115
:1009D0000E948004882309F4F0C1B801CE010E946E
:1009E000BE12882309F4E9C1CA3CFCE5DF0739F4EB
:1009F000F80182818111E1C10E94220EDEC1CB3C4F
:100A00008CE5D80708F00CC1C33C9CE5D90761F41C
:100A1000F8018281882309F4D0C10E943B208272B0
:100A2000E1F00E948C10C9C1C43CECE5DE07C0F0C7
:100A3000C63C9CE5D90709F4C9C008F0D9C0C43C3C
:100A4000FCE5DF0709F0C9C0F8018281882309F4B9
:100A5000B4C10E943B20827221F30E947F10ADC17D
:100A6000C531FCE5DF0708F07BC0C2308CE5D80754
:100A700008F452C0F8018281882309F454C00E940E
:100A80003C21811102C00E94B5210E944F2190E0BB
:100A90009093A3028093A202FE01E350FC45E23151
:100AA000F10530F4EA5AFF4F8091A2020C94652CB4
:100AB0008091A202816027C0826025C0846023C02B
:100AC000806121C080621FC080641DC080681BC01F
:100AD0008460886018C08E7F16C08D7F14C08B7FA5
:100AE00012C08F7E10C08F7D0EC08F7B0CC08F77A1
:100AF0000AC08B7F877F07C087FB222720F991E000
:100B0000922790FB87F98093A2028091A2020E9413
:100B100053210E94581A51C1C1159CE5D90751F0C3
:100B2000C130DC4579F0C801DF91CF911F910F9161
:100B30000C947E04F8018281882309F43EC10E944E
:100B4000CA043BC1F8018281882309F436C180912F
:100B50003202982F909590FB80F9809332022DC13C
:100B6000C631FCE5DF0739F50E943B20982FF801DC
:100B700082812091210130912201882379F09A7A93
:100B800081E009F480E080936A01911102C069E27A
:100B900001C065E3C9010E94EA210AC080916A018F
:100BA000811102C069E201C065E3C9010E94EC2124
:100BB0000E94892002C1C23CDC4509F0B4CFF80193
:100BC00082818111FAC00E94C210F7C0F8018281AF
:100BD0008111F3C00E94E60DF0C0C53CDC4509F070
:100BE000A2CFF80182818111E8C00E94D90DE5C031
:100BF000F8018281C83CFCE5DF0729F48111DDC0E2
:100C00000E94040EDAC0C93CDC4528F48111D5C02D
:100C10000E94F50DD2C08111D0C00E94130ECDC02C
:100C2000C13DECE5DE0791F4F8018281882309F4E7
:100C3000C4C00E94450C8F3028F00E94450C8431BE
:100C400008F40BCF8FE00E948F10B7C0C23DFCE5C7
:100C5000DF0708F05AC0CD3C8CE5D80739F4F8011D
:100C60008281882309F4A9C081E0EDCFCE3C9CE5C8
:100C7000D907C0F4CB3CECE5DE0741F4F8018281F2
:100C8000882309F49AC00E944D0C97C0CC3CDC45E7
:100C900009F049CFF8018281882309F48EC00E94AF
:100CA0005E0C8BC0F8018281CF3CFCE5DF0771F45C
:100CB000882309F482C00E94450C863028F00E94E7
:100CC000450C883008F4C9CE86E0BDCFC03DDC4578
:100CD00070F4882309F471C00E94450C823028F01A
:100CE0000E94450C853008F4B8CE82E0ACCF882352
:100CF00009F463C00E94450C893028F00E94450C1D
:100D00008E3008F4AACE89E09ECFC53DECE5DE0723
:100D100039F4F8018281882309F44FC083E293CF2C
:100D2000C63DFCE5DF0740F5F8018281C33DFCE5E7
:100D3000DF0729F4882309F440C088E184CFC43D4B
:100D4000DC4568F48823C9F10E94450C853128F000
:100D50000E94450C873108F480CE85E174CF88234A
:100D600061F10E94450C893128F00E94450C8232C5
:100D700008F473CE89E167CFCD3DECE5DE0741F4A1
:100D8000F80182818823C9F082E00E94722715C091
:100D9000CE3DFCE5DF0739F4F8018281882369F054
:100DA0000E94B5210AC0CC3DDC4509F0BCCEF8015B
:100DB0008281882311F080E0E8CF80E0DF91CF913D
:100DC0001F910F91089580E090E00895089526E422
:100DD000829FC0011124FC0127E0729FE00DF11DEC
:100DE0001124E60FF11DEE0FFF1FE65BFE4F85910C
:100DF00094910895880F991FFC01E658FC4F859146
:100E000094910895CF93DF930E94E7060E94BE0855
:100E1000EC018115904508F041C0C11580E4D80768
:100E200008F028C1C83ED10510F5C03ED10508F034
:100E3000A1C1C83AD10578F4C53AD10508F0A2C0DD
:100E4000C130D10509F496C108F447C1C430D105B9
:100E500008F090C142C1CF3BD10508F49EC0C03C10
:100E6000D10508F43AC1CE01805C9109F5C0C115E5
:100E700090E2D90758F4C11521E0D20708F07AC1F1
:100E8000C03FD10508F429C1D06574C1C11580E304
:100E9000D80708F0E5C0CE019F70DEC0C11595E50A
:100EA000D90708F043C0C11524E5D20708F0F9C0FE
:100EB000C11582E5D80708F5C11591E5D90708F0F5
:100EC000DCC0CE0174E0969587957A95E1F7837042
:100ED0009C2F937021E030E002C0220F331F9A95BF
:100EE000E2F73C68382BCF70C695C69580E2C89F64
:100EF000E0011124C22BD32B3DC19E012370332767
:100F00008C2F86958695C115D34508F0BBC0C1E0EE
:100F1000D0E002C0CC0FDD1F2A95E2F720E2829FCD
:100F2000C0011124C82BD92BDC6824C1C11529E5C7
:100F3000D207A0F4C11588E5D80708F0B7C0C115DD
:100F400096E5D90708F0C9C08C2F0E943A098F7125
:100F5000C82FD0E0DC2FCC27D0620CC1C1152AE508
:100F6000D20708F4A8C0CE0190568115904208F02F
:100F7000B4C08D2F8F710E943A09DD27D0628F7126
:100F8000D82BF8C0C53AD10509F4AAC0C63AD10594
:100F900009F0A9C0C2E8D0E4EDC0C83AD10509F40F
:100FA000A5C0C93AD10509F4A4C0CA3AD10509F4CB
:100FB000A3C0CB3AD10509F4A2C0CC3AD10509F4BB
:100FC000A1C0CB3BD10509F4A0C0CC3BD10509F4AD
:100FD0009FC0CD3AD10509F49EC0C03BD10509F4AC
:100FE0009DC0CE3AD10509F49CC0CF3AD10509F491
:100FF0009BC0C13BD10509F49AC0C23BD10509F49D
:1010000099C0C33BD10509F498C0C43BD10509F48C
:1010100097C0C53BD10509F496C0C63BD10509F47C
:1010200095C0C73BD10509F494C0C83BD10509F46C
:1010300093C0C93BD10509F492C0CD3BD10509F459
:1010400091C0CE3BD10509F490C0CA3BD10509F44B
:101050008FC0C0E0D4E48EC00E94FA06EC018AC0C2
:10106000CE019927D3FF03C0EC01D86C83C0EC01FB
:10107000D06C80C0DF70D06A7DC0DC2FCC27C16F00
:10108000D06A78C0C1E0D0E002C0CC0FDD1F2A9545
:10109000E2F720E2829FC0011124C82BD92BDA6825
:1010A00069C0DC2FCC27C46FD06A64C0DC2FCC278A
:1010B000C06FD06A5FC08C2F8F700E943A0994E095
:1010C000D695C7959A95E1F7CF70D0E0DC2FCC2765
:1010D000D06A8F70806EC82B4DC0C0E0D0E04AC08F
:1010E000C1E8D0E447C0C3E8D0E444C0C2EED4E4D1
:1010F00041C0C9EED4E43EC0CAEED4E43BC0C5EB67
:10110000D4E438C0C6EBD4E435C0C3EBD4E432C079
:10111000C4EBD4E42FC0C7EBD4E42CC0CCECD4E4B3
:1011200029C0CDECD4E426C0C3E8D5E423C0CAE886
:10113000D5E420C0C2E9D5E41DC0C4E9D5E41AC095
:10114000C1E2D6E417C0C3E2D6E414C0C4E2D6E4D8
:1011500011C0C5E2D6E40EC0C6E2D6E40BC0C7E2B9
:10116000D6E408C0CFE6D4E405C0C0E7D4E402C0AA
:10117000CAE2D6E4CE01DF91CF910895823891057D
:1011800049F1B0F48133910509F459C048F489322A
:10119000910509F44FC08A32910509F455C00895AC
:1011A0008533910509F441C08933910599F008957B
:1011B000833E910531F138F4803E910591F0823EF5
:1011C0009105A9F00895863E910501F1873E9105AC
:1011D00039F108952091A20220FD3BC021FD39C0C4
:1011E00008958091A20280FF34C089E341C08091BC
:1011F000A20282FF30C08091A20284FD2EC083EE45
:1012000037C08091A20282FD26C0F5CF8091A20254
:1012100083FF25C08091A20284FD1FC087EE28C0F5
:101220008091A20283FD1BC0F5CF8091A20285FDB3
:1012300018C019C08091A20285FD15C012C080910E
:10124000A20286FD12C013C08091A20286FD0FC0CB
:101250000CC080EE0DC082EE0BC080E009C086EEAF
:1012600007C089E205C085E303C08AE201C081E3CB
:1012700090E008959091A20292FF0DC0282F28714E
:10128000283019F4877F846006C0282F2471243009
:1012900011F48B7F886093FF0DC0282F28712831AF
:1012A00019F4877E846106C0282F2471243111F43B
:1012B0008B7E886194FD877E089508950C945D0966
:1012C0000C945E09E82FF0E0EF58FE4F80810895FE
:1012D0000895CF93DF93809132028360886080937A
:1012E00032028091000180910001811102C095E0DD
:1012F00001C090E090934E0285E0891B80934D02DF
:10130000ABE3B1E040E451E061E070E08D91E82FA3
:10131000E295EF70F0E021A18F70EB0102C0CC0FDD
:10132000DD1F8A95E2F7CE019C2F9095922391A321
:1013300092A1892B82A34A175B0741F7A4E3B1E08E
:101340004BE351E061E070E08D91E82FE295EF70A2
:10135000F0E021A18F70EB0102C0CC0FDD1F8A9558
:10136000E2F7CE019C2F9095922391A392A1892B15
:1013700082A34A175B0741F7E1E7F1E08BE791E0D1
:1013800011928E179F07E1F785E00E948F0ADF9187
:10139000CF910C94BB046F927F928F929F92AF92E9
:1013A000BF92CF92DF92EF92FF920F931F93CF9352
:1013B000DF936BE371E0ACE6B1E021E7A22E21E020
:1013C000B22E712C01E010E06D019C901C92EB019B
:1013D0008991BE01E82FE295EF70F0E021A18F70B6
:1013E000A80102C0440F551F8A95E2F7CA01242BB9
:1013F00021A322A1642E6094262122A350EA5A95AB
:10140000F1F794E3E92E91E0F92E40E050E0E70196
:1014100089907E01282D22952F7030E0E90128A1C6
:1014200030E0D82DDF7002C035952795DA95E2F7C8
:1014300020FD07C09801042E01C0220F0A94EAF78C
:1014400002C020E030E03C91232B2C934F5F5F4F94
:1014500047305105E1F691A1D62DD923D1A392A110
:10146000892B82A3119681E0F6019081991101C028
:1014700080E0782AAA16BB0609F0A6CF60914E023A
:1014800070E06F587E4F272D45E08CE691E00E947A
:10149000900A872DDF91CF911F910F91FF90EF90D0
:1014A000DF90CF90BF90AF909F908F907F906F9084
:1014B0000895CF930E94CB09C82F0E94C60A8823A3
:1014C00011F180914D0290E08F589E4F0E94230BA6
:1014D000811114C080916B018F5F80936B01863006
:1014E00078F0E0914D02F0E0EF58FE4F80E090E0A0
:1014F0001192019685309105D9F702C010926B01C7
:101500000E94C30409C080914E0290E08F589E4F04
:101510000E94420B0E945D098C2FCF91089508957F
:10152000FF920F931F93CF93DF938C01F62ED72F4B
:10153000C42F222349F081E080937D010E947E2206
:1015400090937C0180937B0180917D018823C1F081
:1015500080917B0190917C010E948A22069780F005
:10156000EF2DFD2FD8014C2F50E0CD01801B910BAA
:10157000841795071CF48D918193F7CF10927D010C
:10158000DF91CF911F910F91FF90089580917E017F
:10159000811112C08091D80080618093D8008AE1C7
:1015A0008A95F1F700C08091D90080FD02C082E0E9
:1015B00001C081E080937E0181E090917E019130B5
:1015C00009F080E008950C94C60A0E94E30A809313
:1015D0000001809100016CE0882311F080E001C0DF
:1015E0008CE00E94F20B0E94C60A81110C94FA0A48
:1015F0000C94000B62E070E081E091E00C945D13CC
:1016000062E070E081E091E00C9466130E94FA0FB2
:10161000882361F086E891E00E94001081E090E06C
:101620000E943F14892B11F40C94FD0F08958091B2
:101630008501883039F460E086E891E00E94E0108E
:10164000109285010895CF93DF93D82FC92F0E9460
:10165000060B80E090E00E943F14892B79F4ED2F77
:10166000FC2F80E090E0DC01A058BE4F2C9121932C
:10167000019685309105B9F781E001C080E0DF91E6
:10168000CF910895CF93DF93D82FC92F0E94170BC6
:10169000ED2FFC2F80E090E02191DC01A058BE4F9F
:1016A0002C93019685309105B9F7DF91CF9108957C
:1016B000CF92DF92EF92FF920F931F93CF93DF931E
:1016C000362F472F282FE82FF0E0711106C0EF5674
:1016D000FB4F6491762F862F7BC0072F10E056E0DA
:1016E000659FC0011124CFEFD0E0BE010E943D2CC8
:1016F0005BEA5603C001579F900D1124830F911D83
:10170000830F911D982F990F980F7E01E01AF10A0F
:10171000EE9ED001EF9EB00DFE9EB00D11248B2FDA
:10172000499FA0011124452F55277E01E41AF50A8F
:10173000EE9EA001EF9E500DFE9E500D11246E01F5
:10174000C91AD108C09E7001C19EF00CD09EF00C49
:1017500011240F2D1127C01BD10BCE9F8001CF9FCD
:10176000100DDE9F100D11246230710591F048F4C8
:1017700061157105E1F061307105B1F49B2FE52F22
:101780000AC06430710569F040F06630710579F087
:101790000BC0912FEB2F822F0DC0922FEB2F852F97
:1017A00009C0922FE12F06C0952FE22F03C09B2F77
:1017B000E22F812FF0E0EF56FB4F7491E82FF0E01D
:1017C000EF56FB4F6491E92FF0E0EF56FB4F849109
:1017D000DF91CF911F910F91FF90EF90DF90CF900D
:1017E0000895089580939501609315010895CF930E
:1017F000DF93762FE901682F842F0E94580B79839D
:1018000068838A83DF91CF91089580914F02282FBA
:10181000269530E02115310519F48170826005C0EC
:101820002532310524F08170886480934F02089539
:1018300088E090E00C94802CCF92DF92EF92FF92A0
:101840006B017C010E94050CB701A60188E090E0C5
:10185000FF90EF90DF90CF900C949E2CEFE4F2E09D
:1018600083E0808311828FEF828383831482ADE9CA
:10187000B1E012968C911297836012968C936081DE
:101880007181828193810C941C0C80914F0280FFA6
:1018900002C08695089580E00895809153028330B8
:1018A00018F48F5F8093530260914F027091500241
:1018B00080915102909152020C941C0C8091530221
:1018C000882319F081508093530260914F027091E8
:1018D000500280915102909152020C941C0C609124
:1018E000150170E080914F0280FF0AC08091950140
:1018F00023E0829FC00111248C5A9D4F0C94471203
:101900008091940190911401891780F7E82FF0E0FD
:101910009F01220F331FE20FF31FEC5AFD4F11827C
:10192000108212828F5FF0CF90914F0290FF16C00D
:101930009091940120911401921770F4E92FF0E036
:10194000DF01AA0FBB1FEA0FFB1FEC5AFD4F81837B
:10195000608342839F5FF0CF0C946F0C0895CF9308
:10196000DF9300D01F92CDB7DEB790914F0290FF6A
:101970000AC09E012F5F3F4F0E94F70B4B81698188
:101980008A810E94940C0F900F900F90DF91CF915D
:101990000895CF93DF93EC01EC81F0E0E457FC4F26
:1019A0004491EFE4F2E0628181810E94AF0C8C816E
:1019B0008F5F8C83DF91CF910895CF93DF93EC01FC
:1019C000EFE4F2E0438162818C810E94AF0C8C8154
:1019D0008F5F8C83DF91CF9108950F931F93CF93E7
:1019E000DF9300D01F92CDB7DEB78C0180918E01BE
:1019F00081110AC09E012F5F3F4F4FEF6FEF0E9492
:101A0000F70B8A8180938E01F8018481813051F037
:101A100028F0823061F440918E010AC080918E01DD
:101A200040E007C060918E0140E080E003C040E0EC
:101A300080E060E00E94940CF801848190E00196BF
:101A400063E070E00E94512C84830F900F900F9000
:101A5000DF91CF911F910F910895AF92BF92CF92D6
:101A6000DF92EF92FF920F931F93CF93DF9300D0FB
:101A70001F92CDB7DEB7182FF62E042FE22E9091CD
:101A80004F0290FF7EC0E92FE695AE2FB0E0AB5B32
:101A9000BE4F8C9180939D019E7F923061F49E0198
:101AA0002F5F3F4F812F0E94F70B4B8169818A8105
:101AB0000E94940C43C0823019F4009152023EC03F
:101AC000863019F41091500239C08930D9F3893128
:101AD000A9F5E9518E2F8170D82EE695F0E0E457F4
:101AE000FB4FA590B490C12CBB2460911301C61686
:101AF00018F52C2D30E0A29EC001A39E900DB29E41
:101B0000900D112470E00E943D2C812FD11002C055
:101B1000860F01C0861B90919401290F311DA901E8
:101B2000440F551F240F351F2C5A3D4F402F6F2D4A
:101B30000E94F70BC394D9CF0E946F0C8091500282
:101B4000181308C080915102F81204C0809152020B
:101B5000081729F080919F01826080939F01109364
:101B60005002F092510200935202EE2051F0609127
:101B70004F027091500280915102909152020E9446
:101B80001C0C0F900F900F90DF91CF911F910F9130
:101B9000FF90EF90DF90CF90BF90AF900895EFE46B
:101BA000F2E09181282F4381628188E0890F0C94B3
:101BB0002D0D81E00C94CF0DEFE4F2E09181282F00
:101BC0004381628188EF890F0C942D0D81E00C9484
:101BD000DC0DEFE4F2E0628121E1620F08F46FEFC7
:101BE000282F438181810C942D0D81E00C94E90D07
:101BF000EFE4F2E0628121E1621B08F460E0282F4B
:101C0000438181810C942D0D81E00C94F80DEFE45B
:101C1000F2E0438121E1420F08F44FEF282F628167
:101C200081810C942D0D81E00C94070EEFE4F2E01D
:101C3000438121E1421B08F440E0282F6281818129
:101C40000C942D0D81E00C94160E21E00C942D0DBA
:101C500020E00C942D0DFF920F931F93CF93DF93F1
:101C6000EC01F12C0FEF10E060911301F616F0F487
:101C7000809194012F2D30E0280F311DC901880F6C
:101C8000991F280F391F2C5A3D4F70E0C8010E9440
:101C9000512C962F8C814091520260915102F99EF5
:101CA000800D11240E94F70BF394DECF0E946F0C7D
:101CB0009A818C8190FF02C08F5F01C081508C831C
:101CC000DF91CF911F910F91FF9008959F92AF9256
:101CD000BF92CF92DF92EF92FF920F931F93CF9319
:101CE000DF938C01FC01828180FF03C0BB24BA9486
:101CF00002C0BB24B394F801848181110EC0F1E0CD
:101D0000BF1206C08091130181508093900102C0E0
:101D10001092900181E0F8018483A12C809113013D
:101D2000A816E0F580919401CA2CD12CE601C80FC9
:101D3000D11DCE01880F991FC80FD91FCC5ADD4F76
:101D4000198218821A8234E0E32EF12C912C8091B2
:101D50009001890D87FF03C090911301890F082E10
:101D6000000C990BC816D90691F4809152028E9DF1
:101D7000A0018F9D500D1124559547955595479578
:101D80009E0160915102809150020E94F70B9B0CC2
:101D9000F1E0EF1AF108D9F6A394C0CF0E946F0CBE
:101DA0008091900191E0B91210C0811108C080911A
:101DB0001301815080939001F801148211C0815069
:101DC00080939001F801B4820BC090E0019660917D
:101DD000130170E00E94512C80939001F8018483DC
:101DE000DF91CF911F910F91FF90EF90DF90CF90F7
:101DF000BF90AF909F9008951F93CF93DF93EC0116
:101E00008C81811109C081E08C8310928F0192E056
:101E1000909312018093110180919401909114018B
:101E2000891770F4E82FF0E09F01220F331FE20FB3
:101E3000F31FEC5AFD4F1182108212828F5FF0CF98
:101E400010E0609113011617C0F5E12FF0E070E08B
:101E5000CF010E94512C20919401820F20918F017B
:101E6000022E000C330B90E0E217F307CCF0209128
:101E70001201022E000C330B2E173F078CF09C0131
:101E8000220F331F820F931F9C012C5A3D4F40910C
:101E9000520260915102809150020E94F70B0BC0D8
:101EA000FC01EE0FFF1F8E0F9F1FFC01EC5AFD4F30
:101EB0001182108212821F5FC4CF0E946F0C80912A
:101EC000110120918F01280F20938F019091120111
:101ED000980F9093120119165CF4022E000C330B2C
:101EE0004091130150E0415051092417350734F057
:101EF000819580931101813009F41C82DF91CF918B
:101F00001F9108950F931F93CF93DF938C01FC01D2
:101F10008481958101968170992795838483C0E09F
:101F2000D5E580911301C81700F5809194012C2FFD
:101F300030E0280F311DC901880F991F280F391F64
:101F40002C5A3D4F4C2F4695F80184819581840F82
:101F5000911D817040915202609151028D9F802DA0
:101F600011240E94F70BCF5FDCCFDF91CF911F913F
:101F70000F910C946F0C0F931F93CF93DF93EC0191
:101F800000E010E080911301282F30E002171307C2
:101F900024F5909194019801290F311DA901440F56
:101FA000551F240F351F2C5A3D4F869590E04C81CC
:101FB000081719071CF4442331F002C0411103C073
:101FC0004091520201C040E0609151028091500264
:101FD0000E94F70B0F5F1F4FD5CF0E946F0C8C81B3
:101FE00090E00196817099278C83DF91CF911F91AA
:101FF0000F91089580919F01089510929F01089577
:1020000025E0EFE4F2E0DC0101900D922A95E1F782
:1020100020919D0130919E0140919F01FC012583FB
:1020200036834783089560914F02669570E04BE0D8
:1020300050E086E191E00E946B2C892B19F481E03D
:1020400080939E010E947E22909397018093960137
:1020500080919F01846080939F010895EDE9F1E0F4
:102060001182828184608283089590914F0290FF53
:102070003AC09170811102C0926006C0853210F0A2
:10208000986402C0880F982B90934F0280919F0113
:10209000816080939F01662351F060914F0270919F
:1020A000500280915102909152020E941C0C60914A
:1020B0004F02669570E04BE050E086E191E00E94AF
:1020C0006B2C892B19F00E942E1002C00E94131055
:1020D00081E0809399014091520260915102809178
:1020E00050020C94280E0895682F90914F029695F7
:1020F00081E0890F853208F081E00C94351081E091
:102100000C947410682F90914F0296958FEF890F61
:1021100009F484E20C94351081E00C94821061E0A3
:102120000C943510EFE4F2E0808181608083869525
:102130000C948F1060E00C943510EFE4F2E0808195
:102140008160808386950C949A10EFE4F2E08081A0
:102150008E7F808360817181828193810E941C0CBB
:102160000E942E10EDE9F1E08281816082832FEFE1
:1021700080E792E0215080409040E1F700C00000ED
:102180000C946F0C80914F0280FD0C94A5100C9460
:102190009210EFE4F2E080818E7F80830E942E1007
:1021A000EDE9F1E08281816082832FEF80E792E0A8
:1021B000215080409040E1F700C000000C946F0C6B
:1021C0001F93CF93DF93EC01162F8F8180FF0FC0F9
:1021D000888180FF0AC080914F02816080934F0206
:1021E000888186950E94351002C00E94C9108F8197
:1021F00081FF06C0212F4B816A8189810E942D0DAC
:102200008F8182FF08C08E81882319F00E941310ED
:1022100002C00E942E108F8183FF03C081E0809353
:102220009901DF91CF911F91089580919C018111B7
:1022300038C0809132028160809332020E943C213A
:10224000811104C00E94B5210E942E0C0E94180C1E
:1022500060934F0270935002809351029093520208
:1022600080919F01836080939F016E7F61F40E9443
:102270002E0C0E94180C60934F02709350028093B2
:102280005102909352020E94050C0E942E108091E0
:102290004F0280FF03C086950E949A1081E08093D0
:1022A0009C010895EF92FF920F931F93CF93DF93BA
:1022B00080919E01882309F4B1C080919D01E09135
:1022C0004F02E695E81BE0939801823049F4F0E074
:1022D000E857FC4FE491CE2FD0E009EC1CE049C058
:1022E000863049F4F0E0EB57FC4FE491CE2FD0E07C
:1022F0000DED1CE03EC0893051F4E695F0E0EE575C
:10230000FC4FE491CE2FD0E00BE21EE032C08F30C4
:1023100051F4E695F0E0E158FC4FE491CE2FD0E087
:1023200006E61EE026C0853149F4F0E0E458FC4F93
:10233000E491CE2FD0E00CEF1EE01BC0883181F07D
:10234000833239F4EAE7F3E0C591D4910DEE1CE055
:1023500010C0843251F4C4EFD1E00BEB1FE009C090
:10236000C8EED3E002E81FE004C0C0EDD7E001EF03
:102370001BE080919901882389F0109299010E94B5
:102380007E229E0120953095820F931F9093970196
:102390008093960110929B0110929A018091960170
:1023A000909197010E948A228C179D07B8F1809125
:1023B00093018823B1F01092930180919101909143
:1023C00092010E948A228033954758F00E947E2213
:1023D000909392018093910180919F0188608093F6
:1023E0009F01E0909A01F0909B01E0919601F0919D
:1023F0009701CE0FDF1FD0939701C093960186E916
:1024000091E0F801099580919A0190919B01892BA7
:1024100029F4EF2819F081E080939301DF91CF91A7
:102420001F910F91FF90EF9008952BB1342F3095AD
:1024300023233BB1432B3FB7F894FC01680F791F6E
:10244000E617F70789F0819198E04BB9000000C0CA
:1024500087FF2BB9880F000000C000C000C02BB957
:1024600000C09A9591F7ECCF3FBF08952AB1242B75
:102470002AB99B01220F331F620F731F0E9415128E
:1024800087EC90E00197F1F700C00000089548E064
:102490000C9436120F931F93CF93DF93C62FD42F34
:1024A000122FFC0182818823C9F06093A2010E944F
:1024B0007E229093A1018093A00180E28C0F88304E
:1024C00008F057C0C77081E001C0880FCA95EAF7CD
:1024D000DF91CF911F910F910C94AC178091A201C5
:1024E000681330C08091A0019091A1010E948A22BE
:1024F0008639910538F500E20D0FCD17B9F080E26D
:102500008C0F883040F4C77081E001C0880FCA95F5
:10251000EAF70E94B317083028F581E09D2F9770E5
:1025200001C0880F9A95EAF70E94AC17812F0E948C
:1025300099170830F0F4D77081E001C0880FDA9560
:10254000EAF70AC080E28C0F883098F4C77081E007
:1025500001C0880FCA95EAF7DF91CF911F910F91C3
:102560000C94B317812FDF91CF911F910F910C9491
:102570009917DF91CF911F910F9108959C01CB0185
:10258000203F4CE53407F9F078F4283DFCE53F079F
:10259000B9F0293D4CE5340711F1273D3C4531F5B3
:1025A00026E241EE61EE1EC0223FFCE53F0799F0B6
:1025B00070F0233F3C45D1F427E245EE66EE12C0B1
:1025C00027E245EE0EC026E241EE60EE0BC027E2A8
:1025D00045EE64EE07C026E241EE62EE03C028E25B
:1025E00041E065EE0E944A1280E00895FC0182817C
:1025F000882319F01092A201089581E008958EE1D8
:10260000489B02C08150E1F7489BFECF089558983F
:1026100080E28A95F1F7589A0895FC012AE02A95FC
:10262000F1F790E020E080E031E0261779F040E11A
:102630004A95F1F7880F489B02C08160932700C03C
:10264000000040E14A95F1F72F5FEFCF20E12A9596
:10265000F1F729B100C0000030E13A95F1F721709F
:1026600092272081920F90830895EF92FF920F930B
:102670001F93CF93DF931F92CDB7DEB719828C01E2
:102680007C01E60EF11C0E151F0559F00E94FF1289
:1026900068E0CE0101960E940D13F80181938F012D
:1026A000F2CF81E09981911180E00F90DF91CF917D
:1026B0001F910F91FF90EF9008959093A501809343
:1026C000A4016093A301509A589A08959093A5018C
:1026D0008093A4016093A3015098589AE89AE9E680
:1026E000F0E080818C7F80830895615091E001C08B
:1026F000990F6A95EAF720E031E0992361F0492FBC
:10270000482319F0589A232701C0589840E24A9567
:10271000F1F79695F2CF222311F0589A01C05898FC
:1027200080E28A95F1F758980895FF920F931F93CE
:10273000CF93DF93EC018C01060F111DC017D10759
:1027400041F0F9900E94071368E08F2D0E947513E5
:10275000F5CFDF91CF911F910F91FF9008951F92B8
:102760000F920FB60F9211240F931F932F933F9345
:102770004F935F936F937F938F939F93AF93BF9389
:10278000EF93FF93CF93DF931F92CDB7DEB71982FC
:102790000E94FF1267E0CE0101960E940D13382FB0
:1027A000369536953695932F96959570232F2570EF
:1027B000920F292F2370969596958770920F891303
:1027C00048C08981811145C08091A301831708F415
:1027D00040C080E18A95F1F7589A509AA2E0AA95F4
:1027E000F1F700C00091A4011091A501B8E03B9F52
:1027F000000D111D11245898F8016581662321F000
:10280000868197810E9495130E940713F0E1FA9543
:10281000F1F758985098589A80E18A95F1F7D801C5
:1028200012966C911297662369F013968D919C9184
:1028300014970E943513D801ED91FC91811105C0C8
:1028400082E004C0D801ED91FC9188E080830E9471
:10285000FF120F90DF91CF91FF91EF91BF91AF9158
:102860009F918F917F916F915F914F913F912F91A8
:102870001F910F910F900FBE0F901F9018950F93FF
:102880001F93CF93DF932091A30130E028173907DE
:102890000CF471C09C0193E0220F331F9A95E1F76D
:1028A000C091A401D091A501C20FD31FF894509AF2
:1028B000589845E04A95F1F70000982F9695957045
:1028C0008570890F982F937086958695890F890159
:1028D000082B0E94071384E08A95F1F700C067E097
:1028E000802F0E94751340E14A95F1F75098589A4D
:1028F000489902C000C0FCCF87E090E0489B0EC022
:10290000019751F4509A589AE881F98181E08083C7
:10291000789481E090E031C000C0F0CF6D816623F3
:1029200081F08E819F810E94351381110AC0509AD7
:10293000589AE881F98182E08083789482E090E07F
:102940001CC00E94FF1280E28A95F1F75898509AB5
:1029500040E14A95F1F76A81662321F08B819C81E1
:102960000E9495130E940713E881F98110827894E0
:1029700080E090E002C084E090E0DF91CF911F9171
:102980000F9108959093AB018093AA010895E0916F
:10299000AA01F091AB01309721F00190F081E02D78
:1029A000099480E00895E091AA01F091AB0130977D
:1029B00021F00280F381E02D09940895E091AA01AD
:1029C000F091AB01309739F022E0DC012C930480C8
:1029D000F581E02D099408952091A8013091A90175
:1029E0002817390771F09093A9018093A801E0910D
:1029F000AA01F091AB01309721F00680F781E02D1C
:102A0000099408952091A6013091A701281739074C
:102A100071F09093A7018093A601E091AA01F09133
:102A2000AB01309721F00084F185E02D09940895E1
:102A300085B7806885BF85B7806885BF089508958C
:102A40000C941F150C9420150C947C040E941815EE
:102A50000E94E50A0C9422150E9475220E946909C1
:102A60000E94EB220E9415110C942415BF92CF9264
:102A7000DF92EF92FF920F931F93CF93DF93CDB727
:102A8000DEB72A970FB6F894DEBF0FBECDBF0E9407
:102A9000590A0E94C60A811111C08FEF89838A8367
:102AA0001B820E947E228160782F9D838C834981C6
:102AB0005A816B818D810E94DF1554C08DEAC82E2A
:102AC00081E0D82E00E010E0B02E802F0E94620935
:102AD000E82EF60121916F01F82EF22631F40F5FF6
:102AE0001F4F0A30110581F7D8CF8091320281FD46
:102AF0000E94680980E090E02F2D30E0482FB90156
:102B0000082E02C0759567950A94E2F760FF25C00C
:102B10008E83BF8281E090E06C0102C0CC0CDD1C92
:102B20004A95E2F72E2D30E02C213D21232B09F48C
:102B300080E088870E947E228160782F9A8789872B
:102B40004E815F8168858A850E94DF15F801E35513
:102B5000FE4F80818C25808305C0019687309105CA
:102B600069F6BDCF0E947E240E94C7149091AC01EB
:102B70008917A9F00E94C7148093AC012A960FB65A
:102B8000F894DEBF0FBECDBFDF91CF911F910F91A3
:102B9000FF90EF90DF90CF90BF900C94C8042A96DE
:102BA0000FB6F894DEBF0FBECDBFDF91CF911F915E
:102BB0000F91FF90EF90DF90CF90BF900895CF934B
:102BC000DF93CDB7DEB72B970FB6F894DEBF0FBEFD
:102BD000CDBF4F83588769877A878B87DE0111962F
:102BE00086E0FD0111928A95E9F785E0FE013796AE
:102BF00001900D928A95E1F749815A816B817C8120
:102C00008D819E810E94281D2B960FB6F894DEBF01
:102C10000FBECDBFDF91CF910895FC0180819181DE
:102C20000E94FC1F0895882309F41AC18238C1F458
:102C30000E94C71481FD14C169E380912101909124
:102C400022010E94EA210E9489202FEF81EE94E068
:102C5000215080409040E1F700C0000069E319C0B6
:102C60008338F9F40E94C71480FDFAC063E58091AF
:102C70002101909122010E94EA210E9489202FEFD8
:102C800081EE94E0215080409040E1F700C00000C8
:102C900063E580912101909122010E94EC210C9426
:102CA00089208438C1F40E94C71482FDD9C067E42A
:102CB00080912101909122010E94EA210E948920A5
:102CC0002FEF81EE94E0215080409040E1F700C06A
:102CD000000067E4DECF9CEF980F913A40F4682F34
:102CE00080912101909122010E94EA21D8CF90E2A7
:102CF000980F983050F4877091E001C0990F8A9531
:102D0000EAF7892F0E943E20CACF9BE5980F9330A7
:102D100070F4853A29F0863A31F083E890E005C0F6
:102D200081E890E002C082E890E00C94EC1498E511
:102D3000980F973108F08EC0883A09F445C0893A57
:102D400009F445C08A3A09F445C08B3A09F445C0F4
:102D50008C3A09F445C08B3B09F445C08C3B09F41F
:102D600045C08D3A09F445C0803B09F445C08E3A10
:102D700009F445C08F3A09F445C0813B09F445C0C8
:102D8000823B09F445C0833B09F445C0843B09F408
:102D900045C0853B09F445C0863B09F445C0873BE7
:102DA00009F445C0883B09F445C0893B09F445C096
:102DB0008D3B09F445C08E3B09F445C08A3B09F4BC
:102DC00045C080E090E044C082EE90E041C089EED2
:102DD00090E03EC08AEE90E03BC085EB90E038C0CA
:102DE00086EB90E035C083EB90E032C084EB90E05E
:102DF0002FC087EB90E02CC08CEC90E029C08DECCC
:102E000090E026C083E891E023C08AE891E020C0EA
:102E100082E991E01DC084E991E01AC081E292E06C
:102E200017C083E292E014C084E292E011C085E210
:102E300092E00EC086E292E00BC087E292E008C00A
:102E40008FE690E005C080E790E002C08AE292E061
:102E50000C940215803F20F00E9486230C9473246A
:102E60000895882309F464C0823879F40E94C71455
:102E700081FF5EC069E380912101909122010E944F
:102E8000EA210E94892069E310C08338B1F40E94CE
:102E9000C71480FF4DC063E580912101909122010C
:102EA0000E94EA210E94892063E58091210190918E
:102EB00022010E94EC210C948920843879F40E942C
:102EC000C71482FF35C067E48091210190912201EF
:102ED0000E94EA210E94892067E4E7CF9CEF980FC7
:102EE000913A10F4682FE1CF90E2980F983050F4A7
:102EF000877091E001C0990F8A95EAF7892F0E94A7
:102F00004420D9CF9BE5980F933020F480E090E0E7
:102F10000C94EC1498E5980F973120F480E090E041
:102F20000C940215803F20F00E94EE230C94732431
:102F30000895CF93C82F0E941316C93349F42FEF79
:102F400083EC99E0215080409040E1F700C0000000
:102F50008C2FCF910C943117882321F00E943E20B2
:102F60000C9489200895882321F00E9444200C9419
:102F7000892008958F929F92AF92BF92DF92EF9235
:102F8000FF920F931F93CF93DF937C01062FC72FE0
:102F9000FC01158112951F70D281D1110E945B2016
:102FA0000E943420882379F0DD2369F080E2800FCD
:102FB000883048F082E00E94D3200E94342091E0C3
:102FC000D82ED92601C0D12CBC2EB2948FE0B822C5
:102FD0008B2D90E0FC01E859FF4F0C94652C8C2F51
:102FE000807FCF70882311F0C295C07FDD2399F0D8
:102FF000CC2309F4B9C180E2800F883010F00111B0
:1030000004C08C2F0E943E2003C08C2F0E944E20B3
:103010000E948920A9C1802F0E943117CC2309F476
:10302000C8C180E2800F883010F0011104C08C2FDD
:103030000E94442003C08C2F0E9454200E948920AB
:10304000B8C18C2F807FCF70803211F0C295C07FC5
:10305000002319F00130C9F022C0DD2371F01123E3
:1030600041F0113031F40E946E208C2B0E947620AA
:10307000A0C10E946E208C2B30C1112319F0113099
:1030800009F497C10E947F2018C0DD2321F016307B
:1030900008F08FC10EC0153008F08BC10EC0DD23C3
:1030A00051F0112331F0F701858180FF5DC18F70F0
:1030B00085838C2F12C1111168C18C2F14C18C2FE4
:1030C00086958695837019F0813061F072C1DD2399
:1030D00021F0802F9C2F937002C080E090E00E942E
:1030E000EC1474C1DD2321F0802F9C2F937002C05B
:1030F00080E090E00E94021569C1DD23F9F0053FF0
:1031000051F0063F71F0043FA9F480919C02909128
:103110009D0281600BC080919C0290919D02826013
:1031200005C080919C0290919D02846090939D02C5
:1031300080939C02802F0E9486231EC0053F51F081
:10314000063F71F0043FA9F480919C0290919D028A
:103150008E7F0BC080919C0290919D028D7F05C057
:1031600080919C0290919D028B7F90939D02809311
:103170009C02802F0E94EE230E94732427C18C2F73
:10318000837009F047C0D1111DC1202F22952695CB
:103190002770220F220F602F6F70862F90E0A0E023
:1031A000B0E04C015D01022E04C0880C991CAA1CE1
:1031B000BB1C0A94D2F704FF10C08FE090E0A0E09F
:1031C000B0E004C0880F991FAA1FBB1F2A95D2F731
:1031D00080959095A095B09503C080E090E0DC01CB
:1031E000C695C695C370BC01CD01682979298A2985
:1031F0009B29C23049F058F4C13019F00E94791E61
:10320000E1C00E94671EDEC00E948B1EDBC00E94D0
:10321000651ED8C0DD2319F08C2F817001C0869502
:10322000882309F4CFC0202F229526952770220FDE
:10323000220F602F6F70862F90E0A0E0B0E04C016D
:103240005D01022E04C0880C991CAA1CBB1C0A94A8
:10325000D2F704FF10C08FE090E0A0E0B0E004C01F
:10326000880F991FAA1FBB1F2A95D2F780959095AA
:10327000A095B09503C080E090E0DC01C695C695AE
:10328000C370BC01CD01682979298A299B29C230E4
:1032900049F058F4C13019F00E943E1F93C00E94BB
:1032A0002C1F90C00E94501F8DC00E949F1E8AC07C
:1032B000802F90E0FC01E05EF109E531F10508F0B6
:1032C0004FC0E858FF4F0C94652C0F708C2F8F71F6
:1032D000DD2331F00E94C51E802F0E94AC1769C00B
:1032E0000E94E61E802F0E94B31763C0DD2341F0C9
:1032F000153008F05EC08C2F8F710E940B1F59C0D3
:10330000163008F056C0F7CFDD2339F08C2F8F71BF
:103310000E94C51E4EC0DD23C9F38C2F8F710E9401
:10332000E61E47C0DD2329F08C2F8F710E94B01E4E
:1033300040C00E94AB1E3DC0DD2349F0CF718C2FF1
:103340000E94C51E63E08C2F0E94BE2032C081E027
:103350000E94D320123068F182E00E94D32029C05D
:10336000DD2331F0112391F2802F0E94131621C02A
:10337000112399F2093349F4FFEF23EC89E0F1506E
:1033800020408040E1F700C00000802F0E943117EC
:1033900010C04C2F4F70602FC7010E94E3060E949F
:1033A000D61D14C04C2F4F70602FC7010E94E60637
:1033B0000DC098E0B91631F0B91640F086EF8B0DCC
:1033C000823020F40E94C7140E94C804DD20E1F07E
:1033D0000E94302080FD18C0F70112820E942A202E
:1033E0000E94C51EC7010E94101A0E942A20DF9168
:1033F000CF911F910F91FF90EF90DF90BF90AF9012
:103400009F908F900C94E61EDF91CF911F910F91AA
:10341000FF90EF90DF90BF90AF909F908F900895B6
:103420000F931F93CF93DF93EC01988189812B81B8
:103430003C81232B31F08F3F31F481E09F3F19F421
:1034400003C081E001C080E080FD13C0CE010E9476
:10345000DF04882371F0688179818A810E940720C6
:103460008C010E94621F0E94531EB801CE010E946F
:10347000BA17DF91CF911F910F9108950E945B20A1
:103480000E946B200E9489200E9419250E947324AB
:1034900080E090E00E94EC1480E090E00C94021533
:1034A00080912101909122010E94EE210C943E1AFC
:1034B0000E944B200C94501AE92FE295EF704E2F8A
:1034C00050E0FA013297EE30F105B0F4E357FF4FC8
:1034D0000C94652C803F91F018F4803E68F40EC087
:1034E000843F51F40BC0803E48F0813F29F406C070
:1034F00093FB882780F9089580E0089581E008957E
:103500000E94FC1F0E945C1A0895CF93DF9300D0A5
:1035100000D01F92CDB7DEB70F900F900F900F9095
:103520000F90DF91CF910895CF93DF9300D000D01B
:1035300000D0CDB7DEB726960FB6F894DEBF0FBE2B
:10354000CDBFDF91CF9108951F93CF93DF93C091AB
:10355000B80116E08091B901C81799F0D0E01C9F1E
:10356000F0011D9FF00D1124E654FE4F4081518162
:1035700062817381848195810E94941A2196C7701B
:10358000E9CFDF91CF911F9108954091EA015091C9
:10359000EB016091EC017091ED018091EE01909151
:1035A000EF010C94941ACF938091EF0182958F7064
:1035B00009F05FC08091EC01882309F45AC0809122
:1035C000B801B091B9017091EA01A091EB0140916D
:1035D000ED015091EE0191E07F3F09F090E0692FFD
:1035E000C6E08B1709F445C04115510521F0AF3FE6
:1035F00021F020E003C021E001C0262F90E020FD53
:1036000035C0C89FF001C99FF00D1124E654FE4F4C
:1036100021812A132BC02081271328C02281211148
:1036200025C0238134812417350710F42150310936
:10363000241B350B26393105C8F42091EF012F707A
:1036400020612093EF0126E0289FF001299FF00DD3
:103650001124E154FE4F80818F70806180838AEE57
:1036600091E00E94101ACF910C94A41A01968770D1
:10367000B8CFCF910895AF92BF92CF92DF92EF92E1
:10368000FF920F931F93CF93DF93CDB7DEB7619770
:103690000FB6F894DEBF0FBECDBF8C0185E0F801F8
:1036A000DE011D9601900D928A95E1F7D8014C91AB
:1036B00011965C9111971296EC903091EA0160910D
:1036C000EB018091ED019091EE01009731F06F3F99
:1036D00031F421E03F3F19F403C021E001C020E0B4
:1036E000B22FB170BB2E20FD60C1F801C380D48021
:1036F000A090EC01AA2009F4EEC02091EF01C816B9
:10370000D90628F0D601A81BB90BCD0104C08095BD
:1037100090958C0D9D1DFF24F3948639910580F0C2
:10372000F12C207F09F09CC07C2DD98AC88A6E2D8F
:1037300089890E94851A8AEE91E00E94101A2DC193
:10374000822F807F09F054C0561314C0431312C057
:10375000FE2CE1100FC02F7020612093EF010E941A
:10376000C51A8AEE91E00E94101A8091EF01F801CB
:1037700085835CC1CD2831F05F3F31F481E04F3F5C
:1037800019F403C081E001C080E080FD03C081E046
:103790008E2502C080E090E0F82FF170FF2E80FFB0
:1037A0001CC08091B8012091B90136E0821709F45C
:1037B0001AC190E0389FF001399FF00D1124E654B2
:1037C000FE4F6181561306C06081461303C06281BB
:1037D000E61203C001968770E9CFFE2CEE2009F4B3
:1037E00025C18091EF0181608093EF01F12C1EC112
:1037F000561309C0431307C0E11005C08091EF01C3
:10380000F8018583A4C04D875E878D859E850E94C3
:10381000801A882379F1EE2069F12091EF01822F3F
:1038200082958F7090E0029774F08091EA019091F8
:10383000EB0198878F831986DB86CA862C87CE0199
:1038400007960E94101A86E0F801AAEEB1E00190F6
:103850000D928A95E1F70E94D31A0E94C51A0DC0F5
:10386000561771F04D875E878D859E850E94801A60
:1038700081111AC0C8010E94101AFF24F394D6C007
:103880004313F0CFE110EECF8091EF01F801858373
:10389000C8010E94101A86E0EAEEF1E0DF011D92F5
:1038A0008A95E9F7FA2CC2C0EE2021F32091EF01AE
:1038B000822F82958F7090E002972CF28091EA011E
:1038C0009091EB019A8389831B82DD82CC822E83C7
:1038D000CE010196B6CFC816D90628F0F601E81B2E
:1038E000F90BCF0104C0809590958C0D9D1D8639F4
:1038F000910548F0F12C7C2DD98AC88A6E2D8989D2
:103900000E94851A4AC0FE2CEE2009F4B3CF56134C
:1039100033C0431331C02091EF0120FD24C0822F1A
:1039200082958F70482F50E041155105E1F0D80184
:1039300015962C9315974F30510549F08F5F982FAE
:103940009295907F822F8F70892B15968C93C8014A
:103950000E94101A86E0F801AAEEB1E001900D92E3
:103960008A95E1F73DC086E0F801AAEEB1E001904A
:103970000D928A95E1F75AC04D875E878D859E85A9
:103980000E94801A81115FCF8091EF018160809346
:10399000EF01C8010E94101A49C0EAEEF1E086E08A
:1039A000DF011D928A95E9F71BC0EE2009F462CF72
:1039B0004D875E878D859E850E94801AF82E88230C
:1039C00009F458CF86E0F801AAEEB1E001900D921B
:1039D0008A95E1F78AEE91E00E940D160E94D31AB3
:1039E0000E94C51A23C04D875E878D859E850E94E3
:1039F000FC1F292F22952F70223028F49F7039F058
:103A0000811105C00BC0243028F49F7049F4805EFA
:103A1000883020F0C8010E94101ABF2CFB2C06C071
:103A2000D80115969C91907F91F7F8CF8F2D6196D4
:103A30000FB6F894DEBF0FBECDBFDF91CF911F91BF
:103A40000F91FF90EF90DF90CF90BF90AF900895CF
:103A50001F93CF93DF93CDB7DEB72C970FB6F894B3
:103A6000DEBF0FBECDBF4F83588769877A878B87AC
:103A70009C87CE0107960E943B1B8823D1F09F8133
:103A800088852A853B85232B31F08F3F31F481E0F7
:103A90009F3F19F403C081E001C080E080FD47C072
:103AA0004F81588569857A858B859C850E94941AFB
:103AB0003EC086E0FE013796DE01119601900D9220
:103AC0008A95E1F7FF81E8856A857B856115710537
:103AD00031F0EF3F31F481E0FF3F19F403C081E0A2
:103AE00001C080E080FD23C02091B90130E0C90110
:103AF0000196877099274091B80150E08417950787
:103B0000F1F1F983EA837D836C8396E0929FD00183
:103B1000939FB00D1124A654BE4FFE013196019023
:103B20000D929A95E1F78093B9010E94A41A16E0CC
:103B30008091B8019091B901891771F1189FC00166
:103B4000112486549E4F0E943B1B882329F1E0914B
:103B5000B8011E9FF0011124E654FE4F40815181AF
:103B600062817381848195810E94941A8091B80149
:103B700090E00196877099278093B801D9CF0E9471
:103B8000581A1092B9011092B801EAEEF1E086E0FD
:103B9000DF011D928A95E9F72C960FB6F894DEBFE7
:103BA0000FBECDBFDF91CF911F910895EF92FF928D
:103BB0000F931F93CF93DF938C01892B09F46CC073
:103BC000F12CEE24E394E8012196F80184918437E6
:103BD00040F4843008F051C0813081F0823019F116
:103BE0005BC0853709F444C0A8F19CE7980F903773
:103BF00008F052C08F770E94311741C00E5F1F4FEF
:103C0000FE01849190E2980F983050F48770FE2D59
:103C100001C0FF0F8A95EAF78F2F0E945E2014C023
:103C20000E9413162DC00E5F1F4FFE01849190E27B
:103C3000980F983060F48770FE2D01C0FF0F8A95B1
:103C4000EAF78F2F0E9464200E94892019C00E94E9
:103C5000311716C00E5F1F4FFE01C491CC2381F0B7
:103C60008FE99FE00197F1F700C00000C150F6CF47
:103C70000E5F1F4FFE01F49003C00E9413168E01C9
:103C80008F2D882309F49FCFEFE9FFE03197F1F7FB
:103C900000C000008150F5CFDF91CF911F910F91AF
:103CA000FF90EF900895089508950C94541E0C947D
:103CB000551E0E94571E609321027093220280932A
:103CC0002302909324020C943E1A0C94591E0F93D5
:103CD0001F93009121021091220220912302309122
:103CE0002402602B712B822B932B1F910F910C942C
:103CF000591E0F931F9300912102109122022091CF
:103D000023023091240260237123822393231F9185
:103D10000F910C94591E0F931F9300912102109143
:103D200022022091230230912402602771278227EA
:103D300093271F910F910C94591E0C94B4030E9469
:103D40009D1E60931D0270931E0280931F0290932C
:103D500020020C943E1A60E070E0CB010C949F1E90
:103D60000F931F9341E050E060E070E08A019B01F7
:103D700004C0000F111F221F331F8A95D2F7C901FB
:103D8000B8011F910F910C949F1E0F931F9341E058
:103D900050E060E070E004C0440F551F661F771FBD
:103DA0008A95D2F780911D0290911E02A0911F0268
:103DB000B09120028A019B01082B192B2A2B3B2B47
:103DC000C901B8011F910F910C949F1E0F931F936F
:103DD00041E050E060E070E004C0440F551F661FF2
:103DE000771F8A95D2F74095509560957095809190
:103DF0001D0290911E02A0911F02B09120028A0123
:103E00009B01082319232A233B23C901B8011F91D1
:103E10000F910C949F1E0F931F9341E050E060E0C0
:103E200070E004C0440F551F661F771F8A95D2F7B4
:103E300080911D0290911E02A0911F02B09120025C
:103E40008A019B01082719272A273B27C901B801A6
:103E50001F910F910C949F1E0F931F9300911D02B1
:103E600010911E0220911F0230912002602B712BB5
:103E7000822B932B1F910F910C949F1E0F931F93D6
:103E800000911D0210911E0220911F02309120020C
:103E900060237123822393231F910F910C949F1E03
:103EA0000F931F9300911D0210911E0220911F027B
:103EB0003091200260277127822793271F910F914D
:103EC0000C949F1E089527E0929F800D1124E82FE7
:103ED000E695E695E695877051E001C0550F8A9505
:103EE000EAF785E0E89FF0011124E051FE4F20E061
:103EF00030E070E04081CB01022E02C0969587959C
:103F00000A94E2F781708195842785238427819321
:103F10002F5F3F4F2530310569F7089527E0929FC5
:103F2000800D1124682F669566956695982F977079
:103F300085E0689FB001112440E050E080E0FB0183
:103F4000E40FF51FE051FE4F208130E0092E02C042
:103F5000369527950A94E2F721703327042E01C085
:103F6000220F0A94EAF7822B4F5F5F4F45305105CD
:103F700031F70895BF92CF92DF92EF92FF920F93A5
:103F80001F93CF93DF938C01C0901D02D0901E022F
:103F9000E0901F02F0902002809121029091220275
:103FA000A0912302B0912402C82AD92AEA2AFB2A26
:103FB000CFE1D0E0D701C6010C2E04C0B695A7957D
:103FC000979587950A94D2F780FD04C0219790F7C2
:103FD000B12C07C0BC2EB8018C2F0E94020701979C
:103FE000A9F38B2DDF91CF911F910F91FF90EF904F
:103FF000DF90CF90BF900895CF93DF93EC010E94A4
:10400000BA1FBE010E940207DF91CF9108951F934E
:10401000CF93DF93EB019091B701992321F0CB016E
:104020000E94FC1F13C0882349F0CB010E94BA1FD5
:10403000182F682FCE010E94631F04C0CB010E947D
:104040008E1F182FBE01812F0E940207DF91CF9192
:104050001F910895809125028595859585950895F0
:10406000809125028770089590912502977081E0D4
:1040700009F480E008958091310208959091310211
:10408000892B809331020895809590913102892384
:104090008093310208951092310208959091300278
:1040A000892B809330020895809590913002892366
:1040B00080933002089510923002089590912F025B
:1040C000892B80932F020895809590912F02892348
:1040D00080932F02089510922F0208958091260256
:1040E000089508950C9471200C94722090912602EA
:1040F000981721F0809326020C94742008958091E3
:104100002602882329F01092260280E00C94742065
:104110000895E0912101F091220180913102808384
:10412000E0912101F0912201908180913002892B50
:104130008083E0912101F0912201908180912F02F2
:10414000892B808380912602882381F0E0912101D0
:10415000F09122019081892B80838091210190919F
:1041600022010E94B72181110E947F2080912101AC
:10417000909122010C94D3140C94712098E0899FA3
:1041800090011124262B209325020E94C51E8091A8
:1041900025028595859585950C94BC201092250265
:1041A00080E00C94BC20209125028095822380938E
:1041B0002502982F977079F430E0482F082E000CD4
:1041C000550B2417350739F08595859585950E94FF
:1041D000E61E0C94CE200895CF92DF92EF92FF92CC
:1041E0006C01EE24FF24C114D104E104F10421F098
:1041F000C701B60120E101C020E0C72ED82EE92E6C
:10420000FF24C114D104E104F10419F0285FC701AF
:10421000B6016B017C0154E0F694E794D794C794FF
:104220005A95D1F7C114D104E104F10419F02C5FBF
:10423000C701B6016B017C0142E0F694E794D79484
:10424000C7944A95D1F7C114D104E104F10419F0DF
:104250002E5FC701B601DC01CB01B695A7959795F6
:104260008795892B8A2B8B2B09F02F5F822FFF904C
:10427000EF90DF90CF90089580E090E00E94862C30
:1042800021E08D3E9E4F09F020E0822F089582E0CC
:1042900090E00C94782C83E090E00C94782C84E0EF
:1042A00090E00C94782C682F84E090E00C948C2C97
:1042B000AB01BC018FE090E00C949E2C83E190E078
:1042C0000C94802CAB01BC0183E190E00C949E2CFB
:1042D00060E070E0CB010E9458210C9447046DEE21
:1042E0007EEF80E090E00E94AA2C60E082E090E007
:1042F0000E948C2C60E083E090E00E948C2C109255
:10430000210210922202109223021092240260E0F5
:1043100084E090E00E948C2C60E085E090E00E94B8
:104320008C2C60E086E090E00E948C2C6FEF87E0A0
:1043300090E00E948C2C40E050E0BA0188E090E0D0
:104340000E949E2C60E08DE090E00E948C2C40E06A
:1043500050E0BA0188E190E00E949E2C60E087E185
:1043600090E00E948C2C0C9468210C946F21FC012D
:10437000329697E080E0915029F021912223D9F3E1
:104380008F5FF9CF08959C01FC0132969FEF80E08A
:104390004191461789F09F3F19F4411101C0982FB0
:1043A0008F5F8630A9F79F3F39F0F901E90FF11DC2
:1043B00097FDFA956283089508959C012A5F3F4F07
:1043C000FC014281461301C01282019682179307B5
:1043D000B9F708950C94C3210C94DD21029626E0D0
:1043E000FC0111922A95E9F7089508950C94F5219E
:1043F0000C94F521CF930E94F8210E94590A0E9443
:10440000F621C0E08C2F0E946209811104C0CF5FA9
:10441000CA30C1F701C081E0CF9108950C94F52115
:104420000C940E220E9410228091A802843049F13F
:104430001092330220E488E190E00FB6F894A8953A
:10444000809360000FBE2093600080E00E94C8044B
:104450000E94102283B7817F846083BF83B781600D
:1044600083BF7894889583B78E7F83BF0FB6F89407
:10447000A895809160008861809360001092600030
:104480000FBE08950C94F5210E94581A0E94C7147B
:104490000E94C8040C9442221F920F920FB60F92F2
:1044A00011248F939F93AF93BF9380913302811117
:1044B00013C080919E0290919F02A091A002B091A2
:1044C000A1024196A11DB11D80939E0290939F026F
:1044D000A093A002B093A102BF91AF919F918F9141
:1044E0000F900FBE0F901F90189582E084BD93E04F
:1044F00095BD9AEF97BD80936E0008952FB7F894FD
:1045000080919E0290919F02A091A002B091A10281
:104510002FBF0895CF92DF92EF92FF920F931F93D8
:104520002FB7F89440919E0250919F026091A00293
:104530007091A1022FBF6A017B01EE24FF248C0140
:1045400020E030E0C016D106E206F30610F4415038
:1045500051099A01281B390BC9011F910F91FF9036
:10456000EF90DF90CF90089578941F920F920FB63E
:104570000F9211248F939F93AF93BF9380919E02CC
:1045800090919F02A091A002B091A1020196A11D5D
:10459000B11D80939E0290939F02A093A002B093BE
:1045A000A102BF91AF919F918F910F900FBE0F907D
:1045B0001F90189587E797E790930108809300086C
:1045C0009AE088E10FB6F894A895809360000FBE3A
:1045D00090936000FFCF0E943C21811102C00E9495
:1045E000B5210E944721809332020E944F2190E022
:1045F0009093A3028093A2020E944B21682F70E047
:1046000080E090E00C94651E8091370280FF0BC023
:104610006091260185E0689FB0011124759567952A
:10462000759567952BC081FF09C06091260185E0D3
:10463000689FB00111247595679520C082FF07C05F
:104640006091260185E0689FB001112417C0909108
:1046500036029923D1F060912501961788F72091B1
:10466000260185E0289F90011124929FA001939F2D
:10467000500D112470E0CA010E94512C6038710560
:1046800040F46115710519F406C065E070E0862FED
:1046900008958FE7089581E008958091370280FFA3
:1046A00008C06091240170E07595679575956795D0
:1046B00021C081FF06C06091240170E07595679567
:1046C00019C082FF04C06091240170E010C0909175
:1046D0003602992399F0609123019617A0F78091F3
:1046E0002401899FC001112470E00E94512C603880
:1046F000710540F46115710519F406C061E070E0C0
:10470000862F08958FE7089581E00895803F21F472
:104710000E940423819504C0813F29F40E94042350
:1047200080933B020895823F21F40E9404238195E7
:1047300004C0833F29F40E94042380933A02089521
:10474000893F19F40E944D2305C08A3F31F40E942D
:104750004D23819580933C0208958B3F21F40E9464
:104760004D23819504C08C3F29F40E944D238093F2
:104770003D020895843F21F480913902816017C081
:10478000853F21F480913902826011C0863F21F477
:104790008091390284600BC0873F21F480913902F7
:1047A000886005C0883F31F4809139028061809330
:1047B000390208958D3F21F48091370281600BC04A
:1047C0008E3F21F480913702826005C08F3F29F42B
:1047D000809137028460809337020895803F39F4D6
:1047E00080913B0287FF6CC010923B0269C0813F01
:1047F00029F480913B021816BCF362C090913A02F2
:10480000823F29F497FF5CC010923A0259C0833F5F
:1048100019F41916CCF354C0893F41F480913C023D
:1048200018160CF04DC010923C024AC08A3F29F481
:1048300080913C0287FF44C0F6CF8B3F39F48091D2
:104840003D0287FF3DC010923D023AC08C3F29F4E3
:1048500080913D021816BCF333C0843F21F480914F
:1048600039028E7F17C0853F21F4809139028D7FF8
:1048700011C0863F21F4809139028B7F0BC0873FA6
:1048800021F480913902877F05C0883F31F48091FF
:1048900039028F7E8093390213C08D3F21F48091BD
:1048A00037028E7F0BC08E3F21F4809137028D7FBF
:1048B00005C08F3F29F4809137028B7F80933702A8
:1048C00080913A0281110EC080913B0281110AC091
:1048D00080913C02811106C080913D02811102C08D
:1048E00010923602089588E392E00E94DE140E943E
:1048F0007E22909335028093340208951F93CF93C4
:10490000DF9380913402909135020E948A22AC019B
:1049100090913602992321F02091270130E006C0C2
:10492000209128018AE0289F900111244217530703
:1049300008F47BC080913A02C0913B02D0913C02C6
:1049400010913D02811107C0C1116BC0D11169C026
:10495000111167C06AC09F3F19F09F5F90933602A4
:10496000181624F40E94042380933A0280913A029C
:1049700087FF05C00E940423819580933A021C168C
:1049800024F40E94042380933B0280913B0287FF22
:1049900005C00E940423819580933B0230913A0226
:1049A0003323E1F020913B022223C1F045EB340395
:1049B000C0011124992319F090933A0203C081E0B9
:1049C00080933A0235EB2303C0011124992319F097
:1049D00090933B0203C081E080933B021D1624F4B8
:1049E0000E944D2380933C0280913C0287FF05C0CA
:1049F0000E944D23819580933C02111624F40E945D
:104A00004D2380933D0280913D0287FF05C00E94A7
:104A10004D23819580933D02DF91CF911F910C949E
:104A200073249F3F09F099CFAACFDF91CF911F91B7
:104A30000895E8E3F2E086E0DF011D928A95E9F748
:104A4000109236021092370208958091460208951E
:104A50000F931F93CF93DF9300D01F92CDB7DEB794
:104A60008C010E948227823011F0843021F584E08D
:104A700089831B830A8382E08093E9008FEF909102
:104A8000E800815095FD06C095ED9A95F1F700007C
:104A90008111F5CF8091E80085FF0DC040E050E026
:104AA00063E070E0CE0101960E949F278091E800AC
:104AB0008E778093E8000F900F900F90DF91CF9149
:104AC0001F910F910895CF93DF9300D01F92CDB720
:104AD000DEB72091A802243031F523E029838058E5
:104AE00091099B838A8382E08093E9008FEF909104
:104AF000E800815095FD06C095ED9A95F1F700000C
:104B00008111F5CF8091E80085FF0DC040E050E0B5
:104B100063E070E0CE0101960E949F278091E8003B
:104B20008E778093E8000F900F900F90DF91CF91D8
:104B30000895CF93DF93EC010E948227823011F019
:104B40008430F9F482E08093E9008FEF9091E800DF
:104B5000815095FD06C095ED9A95F1F70000811101
:104B6000F5CF8091E80085FF0CC040E050E066E0A2
:104B700070E0CE010E949F278091E8008E7780939D
:104B8000E800DF91CF910895CF93DF93EC010E946D
:104B90008227823011F0843039F581E08093E9007A
:104BA0008FEF9091E800815095FD06C095ED9A95A4
:104BB000F1F700008111F5CF8091E80085FF14C066
:104BC00040E050E068E070E0CE010E949F278091B5
:104BD000E8008E778093E80088E0FE01AEE3B2E063
:104BE00001900D928A95E1F7DF91CF910895809120
:104BF000A702811109C00E9430290E948D2980914D
:104C0000E20084608093E20008951092A702089564
:104C1000089508950C94442242E061EC81E00E94E2
:104C2000A92842E261EC82E00C94A9288091AA02B2
:104C3000833009F460C030F4813071F0823009F4BF
:104C400099C008958A3009F485C08B3009F46BC08F
:104C5000893009F0A7C020C08091A902813A09F0EB
:104C6000A1C08091E800877F8093E8008091AD0229
:104C70009091AE02892B21F468E08EE392E003C0AC
:104C800060E080E090E070E00E94EA278091E80018
:104C90008B778093E80008958091A902813209F012
:104CA00081C08091AD029091AE02029708F07AC067
:104CB0008091E800877F8093E8008091E80082FD82
:104CC00005C08091A8028111F8CF6CC02091F3003B
:104CD0008091F20090E0922B029729F48091F100EC
:104CE0008B7F813021F48091F10080934602809186
:104CF000E8008B7753C08091A902813A09F052C035
:104D00008091AD029091AE02892B09F04BC0809149
:104D1000E800877F8093E8008091E80080FFFCCF67
:104D20008091330136C08091A9028132D9F58091FA
:104D3000AD029091AE02892BA9F58091E800877FA2
:104D40008093E8000E94DE288091AB0280933301BB
:104D50000C94581A8091A902813221F58091E800C3
:104D6000877F8093E8000E94DE288091AC028093C8
:104D7000470208958091A902813AA1F48091E80048
:104D8000877F8093E8008091E80080FFFCCF8091CE
:104D900047028093F1008091E8008E778093E800CD
:104DA0000C94DE28089584B7877F84BF0FB6F894EB
:104DB000A8958091600088618093600010926000E7
:104DC0000FBE80E880936100109261000E9426155A
:104DD0000E9430290E948D298091E2008460809396
:104DE000E20078940E94222C0E942C1589E291E026
:104DF0000E94C2148091A802853069F40E94122298
:104E00008091A6028823B1F30E94FA21882391F3AE
:104E10000E948927EFCF0E9436150E945211EACFD7
:104E20000C941227292F332723303105C9F060F461
:104E30002130310581F02230310509F04AC08BE381
:104E400090E02DEB35E049C02132310511F12232DD
:104E5000310579F13EC082E190E028EF35E03DC0B8
:104E600099278130910561F040F08230910559F029
:104E7000039779F5E1E9F5E008C0E9EBF5E005C055
:104E8000EBEAF5E002C0E7E9F5E0849190E09F01EC
:104E900024C06115710541F061307105D1F489E0DC
:104EA00090E028EE35E019C089E090E02FEC35E085
:104EB00014C06115710541F06130710551F485E848
:104EC00090E02AE036E009C080E490E02FE836E088
:104ED00004C080E090E020E030E0FA0131832083DC
:104EE00008950895CF93C82F0E947127C093480258
:104EF000CF9108958091A802843011F081E0089547
:104F000082E0089580914802811102C00C947A27B2
:104F1000089580E189BD82E189BD09B400FEFDCF1D
:104F20008091D8008F7D8093D8008091E0008260CE
:104F30008093E0008091E00081FDFCCF0895CF9246
:104F4000DF92EF92FF920F931F93CF93DF93EC01C9
:104F50008B017A010E94FD28811133C0E114F10414
:104F600039F0F70180819181081B190BC80FD91FF7
:104F7000C12CD12C0115110519F18091E80085FD96
:104F800016C08091E8008E778093E800E114F10468
:104F900049F0F70180819181C80ED91ED182C0826B
:104FA00085E00FC00E94FD28882321F30AC0899163
:104FB0008093F10001501109FFEFCF1ADF0ADACF19
:104FC00080E0DF91CF911F910F91FF90EF90DF90E4
:104FD000CF9008952091AF023091B0022617370785
:104FE00048F06115710539F42091E8002E7720937F
:104FF000E80001C0B901FC0120E06115710579F1FB
:105000008091A8028823F1F18530F1F18091E800C8
:1050100083FD3CC08091E80082FD2EC08091E800B5
:1050200080FFEBCF2091F3008091F20090E0922B73
:105030006115710551F08830910538F42191209364
:10504000F100615071090196F3CF21E0089709F052
:1050500020E08091E8008E778093E800CECF211188
:10506000CFCF0AC08091A802882361F0853061F01B
:105070008091E80083FD0AC08091E80082FFF2CFB2
:1050800080E0089582E0089583E0089581E0089526
:105090002091AF023091B0022617370748F0611512
:1050A000710539F42091E8002E772093E80001C0C3
:1050B000B901FC0120E06115710591F18091A80210
:1050C000882309F440C0853009F43FC08091E8008E
:1050D00083FD3DC08091E80082FD2FC08091E800F3
:1050E00080FFE9CF2091F3008091F20090E0922BB5
:1050F0006115710559F08830910540F42491209391
:10510000F1003196615071090196F2CF21E00897C4
:1051100009F020E08091E8008E778093E800CBCF03
:105120002111CCCF0AC08091A802882361F085307C
:1051300061F08091E80083FD0AC08091E80082FF61
:10514000F2CF80E0089582E0089583E0089581E041
:105150000895982F973068F59093E900981739F0E3
:105160007091EC002091ED005091F00003C0242FCD
:10517000762F50E021FD02C09F5FECCF3091EB0015
:105180003E7F3093EB003091ED003D7F3093ED009A
:105190003091EB0031603093EB007093EC00209382
:1051A000ED005093F0002091EE0027FDE5CF80E068
:1051B00008958F708093E90081E008958091A9029D
:1051C00087FF11C08091E80082FD05C08091A80290
:1051D0008111F8CF11C08091E8008B770BC08091CE
:1051E000A802882349F08091E80080FFF8CF8091E1
:1051F000E8008E778093E80008952091E4003091D4
:10520000E50095E64091EC00842F817040FF23C0BB
:105210008091E80080FD1DC08091A802882399F04C
:10522000853099F08091EB0085FD11C04091E4003C
:105230005091E5002417350729F3915011F09A0198
:10524000E1CF84E0089582E0089583E0089581E04D
:10525000089580E008954091E80042FFDDCF089571
:105260000E949E290E94A629E0EEF0E080818160E4
:105270008083E8EDF0E080818F77808319BCA7ED13
:10528000B0E08C918E7F8C9380818F7E8083109292
:10529000A70208950F931F93CF93DF930E949E2937
:1052A0000E94A629C8EDD0E088818F778883888105
:1052B0008068888388818F7D888319BC1092A802BA
:1052C0001092A4021092A6021092A50200EE10E025
:1052D000F80180818B7F808388818160888342E0B0
:1052E00060E080E00E94A928E1EEF0E080818E7FFE
:1052F0008083E2EEF0E0808181608083808188603D
:105300008083F80180818E7F80838881806188839B
:10531000DF91CF911F910F910895E8EDF0E080812A
:105320008F7E8083E7EDF0E080818160808384E080
:1053300082BF81E08093A7020C944A29E8EDF0E057
:1053400080818E7F80831092E20008951092DA00AF
:105350001092E10008951F920F920FB60F92112440
:105360002F933F934F935F936F937F938F939F936D
:10537000AF93BF93EF93FF938091E10082FF0BC047
:105380008091E20082FF07C08091E1008B7F8093D3
:10539000E1000E94212C8091DA0080FF1FC08091E3
:1053A000D80080FF1BC08091DA008E7F8093DA00E6
:1053B0008091D90080FF0DC080E189BD82E189BD67
:1053C00009B400FEFDCF81E08093A8020E94F7257A
:1053D00005C019BC1092A8020E9405268091E10028
:1053E00080FF19C08091E20080FF15C08091E2002B
:1053F0008E7F8093E2008091E20080618093E200E2
:105400008091D80080628093D80019BC85E0809399
:10541000A8020E9409268091E10084FF30C080919B
:10542000E20084FF2CC080E189BD82E189BD09B41E
:1054300000FEFDCF8091D8008F7D8093D8008091B1
:10544000E1008F7E8093E1008091E2008F7E809367
:10545000E2008091E20081608093E2008091A402EA
:10546000882311F084E007C08091E30087FD02C02B
:1054700081E001C083E08093A8020E940A26809107
:10548000E10083FF29C08091E20083FF25C0809165
:10549000E100877F8093E10082E08093A802109270
:1054A000A4028091E1008E7F8093E1008091E20070
:1054B0008E7F8093E2008091E20080618093E20021
:1054C00042E060E080E00E94A9288091F0008860BE
:1054D0008093F0000E940826FF91EF91BF91AF9159
:1054E0009F918F917F916F915F914F913F912F91FC
:1054F0000F900FBE0F901F9018951F920F920FB62E
:105500000F9211242F933F934F935F936F937F9349
:105510008F939F93AF93BF93CF93DF93EF93FF93BB
:10552000C091E900CF708091EC00D82FD17080FD40
:10553000D0E81092E9008091F000877F8093F0001E
:1055400078940E94C12A1092E9008091F00088604E
:105550008093F000CD2BCF70C093E900FF91EF91C5
:10556000DF91CF91BF91AF919F918F917F916F917B
:105570005F914F913F912F910F900FBE0F901F9011
:1055800018951F93CF93DF93CDB7DEB7AA970FB6C9
:10559000F894DEBF0FBECDBFE9EAF2E08091F100E2
:1055A000819322E0E13BF207C9F70E941626809121
:1055B000E80083FF2EC18091A9029091AA02492F91
:1055C00050E04A30510508F024C1FA01E556FF4F7A
:1055D0000C94652C803821F0823809F01AC108C07B
:1055E0008091A5029091A602992389F082600FC054
:1055F0008091AD028F70873008F00BC18093E90075
:105600008091EB0085FB882780F91092E90090914A
:10561000E800977F9093E8008093F1001092F100EA
:10562000D1C0282F2D7F09F0F4C0882319F08230D3
:1056300061F0EFC08091AB02813009F0EAC0933095
:1056400009F080E08093A6022EC08091AB02811108
:105650002AC08091AD028F702FEF280F263008F0FE
:10566000D8C08093E9002091EB0020FF1CC093304C
:1056700021F48091EB00806214C09091EB00906166
:105680009093EB0021E030E0A90102C0440F551FC8
:105690008A95E2F74093EA001092EA008091EB00CD
:1056A00088608093EB001092E9008091E800877F8A
:1056B0008093E8000E94DE28ACC08111AAC010913E
:1056C000AB021F778091E3008078812B8093E30009
:1056D0008091E800877F8093E8000E94DE28809117
:1056E000E80080FFFCCF8091E30080688093E300B6
:1056F000111102C082E001C083E08093A80289C03A
:105700008058823008F085C08091AB029091AC0245
:105710008C3D53E0950779F583E08A838AE289839B
:105720004FB7F894DE01139620E03EE051E2E32FFC
:10573000F0E050935700E49120FF03C0E295EF7032
:105740003F5FEF708E2F90E0EA3010F0C79601C0F7
:10575000C0968D939D932F5F243149F74FBF809161
:10576000E800877F8093E8006AE270E0CE0101964E
:105770000E94EA2716C06091AD027091AE02AE01A0
:105780004F5F5F4F0E941027BC01892B09F441C075
:105790009091E800977F9093E80089819A810E9418
:1057A00048288091E8008B778093E80032C08038E9
:1057B00081F58091E800877F8093E8008091A402C2
:1057C0008093F1008091E8008E7772CF811121C023
:1057D0008091AB029091AC0299270297D4F480910A
:1057E000E800877F8093E8008091AB028093A40259
:1057F0000E94DE288091A402811106C08091E300FE
:1058000087FD02C081E001C084E08093A8020E946D
:105810000C268091E80083FF0AC08091E800877F12
:105820008093E8008091EB0080628093EB00AA9661
:105830000FB6F894DEBF0FBECDBFDF91CF911F91A1
:1058400008950895CF938091A8028823A1F0C09174
:10585000E900CF709091EC00892F817090FD80E875
:10586000C82B1092E9008091E80083FD0E94C12AB4
:10587000CF70C093E900CF910895AA1BBB1B51E1E3
:1058800007C0AA1FBB1FA617B70710F0A61BB70BB0
:10589000881F991F5A95A9F780959095BC01CD0155
:1058A000089597FB072E16F4009407D077FD09D0D2
:1058B0000E943D2C07FC05D03EF4909581959F4FAA
:1058C0000895709561957F4F0895EE0FFF1F059025
:1058D000F491E02D0994FC014150504030F00190CA
:1058E0000616D1F73197CF01089588279927089593
:1058F000F999FECF92BD81BDF89A992780B5089598
:10590000A6E1B0E044E050E00C94B22CA8E1B0E095
:1059100042E050E00C94B22C262FF999FECF92BDB4
:1059200081BDF89A019700B4021639F01FBA20BD64
:105930000FB6F894FA9AF99A0FBE08950396272F96
:105940000E948D2C0E948C2C252F0E948D2C242FA0
:105950000C948D2C0196272F0E948D2C0C948C2C4E
:10596000DC01CB01FC01F999FECF06C0F2BDE1BD1F
:10597000F89A319600B40D9241505040B8F708950E
:04598000F894FFCFC9
:10598400017F010080010580018501088601000076
:1059940000010218181801191A1B1C1D1E1F2021B2
:1059A4002227022808140A321E2525C425992563B6
:1059B40025282501F4F5F6F73133329497C63435AA
:1059C40000000000000001020202020606060909A6
:1059D400090909090F0F0F0F0F0F151515181919BC
:0A59E40019191919191919192324AA
:00000001FF
