:100000000C9468030C94DE120C94AF030C94AF03B1
:100010000C94AF030C94AF030C94AF030C94AF0398
:100020000C94AF030C94AF030C948B280C945D29B3
:100030000C942C210C94AF030C94AF030C94AF03DD
:100040000C94AF030C94AF030C94AF030C94AF0368
:100050000C94AF030C9494210C94AF030C94AF0355
:100060000C94AF030C94AF030C94AF030C94AF0348
:100070000C94AF030C94AF030C94AF030C94AF0338
:100080000C94AF030C94AF030C94AF030C94AF0328
:100090000C94AF030C94AF030C94AF030C94AF0318
:1000A0000C94AF030C94AF030C94AF039404960428
:1000B000A10498049A049C049E04A004A304A5042B
:1000C000A704B204A904AB04AD04AF04B104B404A2
:1000D0001E171E17501750178E17AC17081908193E
:1000E000EE17081987188718F81808190819011940
:1000F00094189418941894189418941894189418A0
:10010000941894189418941894189418941894188F
:10011000A518B318BA18C118CB1899199919AB19A1
:10012000AB19A219AB19AB19AB1999199919A719E0
:10013000AB19AB19A719CA29F129E92AF129E92A2A
:100140003D2A602AE92AB72AC62A2900000023028C
:1001500035003400000000002B0014001A000800D5
:1001600015001700060139000400166207430961F3
:100170000A001901E0001D001B000600190005001F
:10018000E3000158000F0007E2002C002C002A00B9
:100190000253000000000000000000004600310093
:1001A000130012000C0018001C001B013400330067
:1001B0000F720E000D710B00000065003800370053
:1001C000360010001100490000000000000000008F
:1001D000015128004C0000003A003B003C003D006B
:1001E0003E00000000001E026700260227023102C6
:1001F00000000000220225022F023002240200002B
:100200000000200223022F0230023502000001000C
:100210000000000000000000000000004400430057
:100220004200410040003F00470045005700610088
:1002300060005F002D020000530056005E005D006C
:100240005C001F020000670055005B005A00590067
:100250002102000058005400630062000100000009
:100260000000C55CCA5CC95CC25CC45CC35CCC5C9D
:10027000C65C00000000F0000000F900CB5CC75C29
:100280000000F200F100F300FA000000C85C00007A
:100290000000000000000000F60000000000000068
:1002A0000000F400F50000000100D25CD15CD05CDD
:1002B000CF5CCE5CCD5CD35C000000000000000091
:1002C00000000000D45C0000A900A800AA00000003
:1002D0000000000000000000000000000000B90065
:1002E0000000000000000000B600B70000000000A1
:1002F00000000000000000000000000000000000FE
:1003000000000000000000000000000000000000ED
:1003100000000000000000000000000000000000DD
:1003200000000000000000000000000000000000CD
:1003300000000000000000000000000000000000BD
:10034000000000004B004D0052004A004B0000002E
:1003500000004E004F00510050004E000000000011
:10036000000000000000000000000000000000008D
:100370000000000000000000000000047F3F1F6438
:100380003214643214783C1E1E140A0522232526DA
:1003900028292A2C2D2F3032333536383A3B3D3E32
:1003A0004042434547494A4C4E5051535557595A7C
:1003B0005C5E6062646668696B6D6F717375777996
:1003C0007B7D7F81838587898A8C8E909294969895
:1003D0009A9C9E9FA1A3A5A7A8AAACAEAFB1B3B4A7
:1003E000B6B8B9BBBCBEBFC1C2C3C5C6C7C9CACBFC
:1003F000CCCDCED0D1D2D2D3D4D5D6D7D7D8D9D9C7
:10040000DADADBDBDBDCDCDCDCDCDDDDDDDDDCDC2F
:10041000DCDCDCDBDBDBDADAD9D9D8D7D7D6D5D44C
:10042000D3D2D2D1D0CECDCCCBCAC9C7C6C5C3C218
:10043000C1BFBEBCBBB9B8B6B4B3B1AFAEACAAA86D
:10044000A7A5A3A19F9E9C9A98969492908E8C8A21
:1004500089878583817F7D7B79777573716F6D6BFC
:100460006968666462605E5C5A5957555351504ED4
:100470004C4A4947454342403E3D3B3A3836353386
:1004800032302F2D2C2A292826252322FFAA7F55FA
:100490004000000000000000000000010101010117
:1004A000010101010202020202020202030303032C
:1004B00003030304040404040505050505060606F4
:1004C000060607070707080808080909090A0A0AAB
:1004D0000B0B0B0C0C0C0D0D0D0E0E0E0F0F101048
:1004E00010111112121313141415151616171718CC
:1004F0001819191A1A1B1C1C1D1D1E1F1F20212133
:1005000022232324252526272828292A2B2C2C2D75
:100510002E2F30313132333435363738393A3B3C8F
:100520003D3E3F404142434445464748494B4C4D80
:100530004E4F50525354555758595A5C5D5E606146
:1005400063646567686A6B6C6E6F717274767779D5
:100550007A7C7D7F8182848687898B8D8E90929430
:100560009597999B9D9FA1A2A4A6A8AAACAEB0B254
:10057000B4B6B9BBBDBFC1C3C5C8CACCCED0D3D534
:10058000D7DADCDEE1E3E6E8EAEDEFF2F4F7F9FCD6
:10059000FF04033000000012034500720067006F83
:1005A00000440061007300680000000C034F006D00
:1005B000006B006200640000000403090409023BB0
:1005C00000020100A0FA0904000001030101000972
:1005D00021110100012240000705810308000A09DA
:1005E000040100010300000009211101000122851E
:1005F000000705820320000A120110010000000814
:10060000EDFE606000010102030105010902A10184
:1006100085020901A1000509190129051500250117
:100620009505750181029501750381010501093068
:1006300009311581257F95027508810609381581D4
:10064000257F950175088106050C0A38021581255C
:100650007F950175088106C0C005010980A101854B
:10066000031601002603001A81002A8300751095E5
:10067000018100C0050C0901A101850416010026B5
:100680009C021A01002A9C02751095018100C00588
:10069000010906A101050719E029E71500250195C3
:1006A0000875018102950175088101050819012964
:1006B00005950575019102950175039101050719CD
:1006C0000029FF150026FF00950675088100C0006F
:1006D00011241FBECFEFDAE0DEBFCDBF04B603FEAC
:1006E00027C08091AD029091AE02A091AF02B0916F
:1006F000B0028730904BA740B04BD1F41092AD02BE
:100700001092AE021092AF021092B00214BE84B7E3
:10071000877F84BF0FB6F894A895809160008861A8
:1007200080936000109260000FBEE0E0F8E309954E
:1007300011E0A0E0B1E0E4E4F7E502C005900D921D
:10074000AA36B107D9F722E0AAE6B1E001C01D92AE
:10075000AD3AB207E1F70E94B3250C94A02B0C949C
:1007600000000C949A08089581E0089581E00895AE
:100770000C94B6031F93CF93DF9300D000D01F9249
:10078000CDB7DEB749835A836B832091B701898146
:100790009A81211112C0662349F00E94E91E182F88
:1007A000682F89819A810E94921E03C00E94BD1EFB
:1007B000182F69817A81812F04C00E94E91E698106
:1007C0007A810F900F900F900F900F90DF91CF9143
:1007D0001F910C941F06FC0140815181628173813D
:1007E00084810C94BA030E941B20811102C00E94D4
:1007F00095200C94B1030C94980808950C94FD0373
:100800000C94FE030E9487190E94B3032FEF84E328
:100810009CE0215080409040E1F700C0000087E755
:1008200097E790930108809300080C94BA210F93E6
:100830001F93CF93DF938C010E94EB03EC01B8016F
:100840000E94B803882309F4F0C1B801CE010E94C8
:10085000ED11882309F4E9C1CA3CFCE5DF0739F44E
:10086000F80182818111E1C10E945C0DDEC1CB3CA7
:100870008CE5D80708F00CC1C33C9CE5D90761F4AE
:10088000F8018281882309F4D0C10E946A1F827214
:10089000E1F00E94C30FC9C1C43CECE5DE07C0F023
:1008A000C63C9CE5D90709F4C9C008F0D9C0C43CCE
:1008B000FCE5DF0709F0C9C0F8018281882309F44B
:1008C000B4C10E946A1F827221F30E94B60FADC1AB
:1008D000C531FCE5DF0708F07BC0C2308CE5D807E6
:1008E00008F452C0F8018281882309F454C00E94A0
:1008F0001B20811102C00E9495200E942E2090E0B2
:1009000090939F0280939E02FE01E350FC45E231EA
:10091000F10530F4EA5AFF4F80919E020C94452B6A
:1009200080919E02816027C0826025C0846023C0C0
:10093000806121C080621FC080641DC080681BC0B0
:100940008460886018C08E7F16C08D7F14C08B7F36
:1009500012C08F7E10C08F7D0EC08F7B0CC08F7732
:100960000AC08B7F877F07C087FB222720F991E091
:10097000922790FB87F980939E0280919E020E94AD
:1009800032200E94871951C1C1159CE5D90751F049
:10099000C130DC4579F0C801DF91CF911F910F91F3
:1009A0000C94B403F8018281882309F43EC10E94AB
:1009B00002043BC1F8018281882309F436C1809189
:1009C0003202982F909590FB80F9809332022DC1CE
:1009D000C631FCE5DF0739F50E946A1F982FF80140
:1009E00082812091210130912201882379F09A7A25
:1009F00081E009F480E080936A01911102C069E20C
:100A000001C065E3C9010E94CA200AC080916A0141
:100A1000811102C069E201C065E3C9010E94CC20D6
:100A20000E94B81F02C1C23CDC4509F0B4CFF801F6
:100A300082818111FAC00E94F10FF7C0F801828112
:100A40008111F3C00E94200DF0C0C53CDC4509F0C7
:100A5000A2CFF80182818111E8C00E94130DE5C088
:100A6000F8018281C83CFCE5DF0729F48111DDC073
:100A70000E943E0DDAC0C93CDC4528F48111D5C086
:100A80000E942F0DD2C08111D0C00E944D0DCDC04B
:100A9000C13DECE5DE0791F4F8018281882309F479
:100AA000C4C00E947F0B8F3028F00E947F0B8431DE
:100AB00008F40BCF8FE00E94C60FB7C0C23DFCE523
:100AC000DF0708F05AC0CD3C8CE5D80739F4F801AF
:100AD0008281882309F4A9C081E0EDCFCE3C9CE55A
:100AE000D907C0F4CB3CECE5DE0741F4F801828184
:100AF000882309F49AC00E94870B97C0CC3CDC4540
:100B000009F049CFF8018281882309F48EC00E9440
:100B1000980B8BC0F8018281CF3CFCE5DF0771F4B4
:100B2000882309F482C00E947F0B863028F00E943F
:100B30007F0B883008F4C9CE86E0BDCFC03DDC45D0
:100B400070F4882309F471C00E947F0B823028F072
:100B50000E947F0B853008F4B8CE82E0ACCF8823AA
:100B600009F463C00E947F0B893028F00E947F0B3C
:100B70008E3008F4AACE89E09ECFC53DECE5DE07B5
:100B800039F4F8018281882309F44FC083E293CFBE
:100B9000C63DFCE5DF0740F5F8018281C33DFCE579
:100BA000DF0729F4882309F440C088E184CFC43DDD
:100BB000DC4568F48823C9F10E947F0B853128F059
:100BC0000E947F0B873108F480CE85E174CF8823A3
:100BD00061F10E947F0B893128F00E947F0B8232E5
:100BE00008F473CE89E167CFCD3DECE5DE0741F433
:100BF000F80182818823C9F082E00E94522615C044
:100C0000CE3DFCE5DF0739F4F8018281882369F0E5
:100C10000E9495200AC0CC3DDC4509F0BCCEF8010D
:100C20008281882311F080E0E8CF80E0DF91CF91CE
:100C30001F910F91089580E090E00895089526E4B3
:100C4000829FC0011124FC0127E0729FE00DF11D7D
:100C50001124E60FF11DEE0FFF1FE65BFE4F85919D
:100C600094910895880F991FFC01E658FC4F8591D7
:100C700094910895CF93DF930E941F060E94F60778
:100C8000EC018115904508F041C0C11580E4D807FA
:100C900008F028C1C83ED10510F5C03ED10508F0C6
:100CA000A1C1C83AD10578F4C53AD10508F0A2C06F
:100CB000C130D10509F496C108F447C1C430D1054B
:100CC00008F090C142C1CF3BD10508F49EC0C03CA2
:100CD000D10508F43AC1CE01805C9109F5C0C11577
:100CE00090E2D90758F4C11521E0D20708F07AC183
:100CF000C03FD10508F429C1D06574C1C11580E396
:100D0000D80708F0E5C0CE019F70DEC0C11595E59B
:100D1000D90708F043C0C11524E5D20708F0F9C08F
:100D2000C11582E5D80708F5C11591E5D90708F086
:100D3000DCC0CE0174E0969587957A95E1F78370D3
:100D40009C2F937021E030E002C0220F331F9A9550
:100D5000E2F73C68382BCF70C695C69580E2C89FF5
:100D6000E0011124C22BD32B3DC19E0123703327F8
:100D70008C2F86958695C115D34508F0BBC0C1E080
:100D8000D0E002C0CC0FDD1F2A95E2F720E2829F5F
:100D9000C0011124C82BD92BDC6824C1C11529E559
:100DA000D207A0F4C11588E5D80708F0B7C0C1156F
:100DB00096E5D90708F0C9C08C2F0E9472088F7180
:100DC000C82FD0E0DC2FCC27D0620CC1C1152AE59A
:100DD000D20708F4A8C0CE0190568115904208F0C1
:100DE000B4C08D2F8F710E947208DD27D0628F7181
:100DF000D82BF8C0C53AD10509F4AAC0C63AD10526
:100E000009F0A9C0C2E8D0E4EDC0C83AD10509F4A0
:100E1000A5C0C93AD10509F4A4C0CA3AD10509F45C
:100E2000A3C0CB3AD10509F4A2C0CC3AD10509F44C
:100E3000A1C0CB3BD10509F4A0C0CC3BD10509F43E
:100E40009FC0CD3AD10509F49EC0C03BD10509F43D
:100E50009DC0CE3AD10509F49CC0CF3AD10509F422
:100E60009BC0C13BD10509F49AC0C23BD10509F42E
:100E700099C0C33BD10509F498C0C43BD10509F41E
:100E800097C0C53BD10509F496C0C63BD10509F40E
:100E900095C0C73BD10509F494C0C83BD10509F4FE
:100EA00093C0C93BD10509F492C0CD3BD10509F4EB
:100EB00091C0CE3BD10509F490C0CA3BD10509F4DD
:100EC0008FC0C0E0D4E48EC00E943206EC018AC01C
:100ED000CE019927D3FF03C0EC01D86C83C0EC018D
:100EE000D06C80C0DF70D06A7DC0DC2FCC27C16F92
:100EF000D06A78C0C1E0D0E002C0CC0FDD1F2A95D7
:100F0000E2F720E2829FC0011124C82BD92BDA68B6
:100F100069C0DC2FCC27C46FD06A64C0DC2FCC271B
:100F2000C06FD06A5FC08C2F8F700E94720894E0EF
:100F3000D695C7959A95E1F7CF70D0E0DC2FCC27F6
:100F4000D06A8F70806EC82B4DC0C0E0D0E04AC020
:100F5000C1E8D0E447C0C3E8D0E444C0C2EED4E462
:100F600041C0C9EED4E43EC0CAEED4E43BC0C5EBF8
:100F7000D4E438C0C6EBD4E435C0C3EBD4E432C00B
:100F8000C4EBD4E42FC0C7EBD4E42CC0CCECD4E445
:100F900029C0CDECD4E426C0C3E8D5E423C0CAE818
:100FA000D5E420C0C2E9D5E41DC0C4E9D5E41AC027
:100FB000C1E2D6E417C0C3E2D6E414C0C4E2D6E46A
:100FC00011C0C5E2D6E40EC0C6E2D6E40BC0C7E24B
:100FD000D6E408C0CFE6D4E405C0C0E7D4E402C03C
:100FE000CAE2D6E4CE01DF91CF910895823891050F
:100FF00049F1B0F48133910509F459C048F48932BC
:10100000910509F44FC08A32910509F455C008953D
:101010008533910509F441C08933910599F008950C
:10102000833E910531F138F4803E910591F0823E86
:101030009105A9F00895863E910501F1873E91053D
:1010400039F1089520919E0220FD3BC021FD39C059
:10105000089580919E0280FF34C089E341C0809151
:101060009E0282FF30C080919E0284FD2EC083EEDE
:1010700037C080919E0282FD26C0F5CF80919E02EE
:1010800083FF25C080919E0284FD1FC087EE28C08B
:1010900080919E0283FD1BC0F5CF80919E0285FD4D
:1010A00018C019C080919E0285FD15C012C08091A4
:1010B0009E0286FD12C013C080919E0286FD0FC065
:1010C0000CC080EE0DC082EE0BC080E009C086EE41
:1010D00007C089E205C085E303C08AE201C081E35D
:1010E00090E0089590919E0292FF0DC0282F2871E4
:1010F000283019F4877F846006C0282F247124309B
:1011000011F48B7F886093FF0DC0282F2871283140
:1011100019F4877E846106C0282F2471243111F4CC
:101120008B7E886194FD877E089508950C949508C0
:101130000C9496080C949508E82FF0E0EF58FE4FB9
:10114000808108950895CF93DF9380913202836068
:1011500088608093320280910001809100018111AA
:1011600002C095E001C090E090934A0285E0891B9F
:1011700080934902ABE3B1E040E451E061E070E00C
:101180008D91E82FE295EF70F0E021A18F70EB01D7
:1011900002C0CC0FDD1F8A95E2F7CE019C2F9095FF
:1011A000922391A392A1892B82A34A175B0741F74F
:1011B000A4E3B1E04BE351E061E070E08D91E82FF2
:1011C000E295EF70F0E021A18F70EB0102C0CC0F2F
:1011D000DD1F8A95E2F7CE019C2F9095922391A373
:1011E00092A1892B82A34A175B0741F7E1E7F1E05F
:1011F0008BE791E011928E179F07E1F785E00E943F
:10120000C909DF91CF910C94F3036F927F928F9273
:101210009F92AF92BF92CF92DF92EF92FF920F9385
:101220001F93CF93DF936BE371E0ACE6B1E021E76E
:10123000A22E21E0B22E712C01E010E06D019C90F5
:101240001C92EB018991BE01E82FE295EF70F0E06E
:1012500021A18F70A80102C0440F551F8A95E2F7A3
:10126000CA01242B21A322A1642E6094262122A34B
:1012700050EA5A95F1F794E3E92E91E0F92E40E017
:1012800050E0E70189907E01282D22952F7030E0F3
:10129000E90128A130E0D82DDF7002C035952795EF
:1012A000DA95E2F720FD07C09801042E01C0220F55
:1012B0000A94EAF702C020E030E03C91232B2C9303
:1012C0004F5F5F4F47305105E1F691A1D62DD923ED
:1012D000D1A392A1892B82A3119681E0F60190817E
:1012E000991101C080E0782AAA16BB0609F0A6CFA2
:1012F00060914A0270E06F587E4F272D45E08CE6E2
:1013000091E00E94CA09872DDF91CF911F910F9123
:10131000FF90EF90DF90CF90BF90AF909F908F9015
:101320007F906F900895CF930E940509C82F0E9467
:10133000000A882311F18091490290E08F589E4F56
:101340000E945D0A811114C080916B018F5F8093B0
:101350006B01863078F0E0914902F0E0EF58FE4FE3
:1013600080E090E01192019685309105D9F702C096
:1013700010926B010E94FB0309C080914A0290E029
:101380008F589E4F0E947C0A0E9495088C2FCF9107
:1013900008950895FF920F931F93CF93DF938C01CD
:1013A000F62ED72FC42F222349F081E080937D01B0
:1013B0000E945E2190937C0180937B0180917D014E
:1013C0008823C1F080917B0190917C010E946A2169
:1013D000069780F0EF2DFD2FD8014C2F50E0CD0166
:1013E000801B910B841795071CF48D918193F7CF87
:1013F00010927D01DF91CF911F910F91FF90089581
:1014000080917E01811112C08091D800806180930B
:10141000D8008AE18A95F1F700C08091D90080FD5B
:1014200002C082E001C081E080937E0181E0909162
:101430007E01913009F080E008950C94000A0E942A
:101440001D0A80930001809100016CE0882311F057
:1014500080E001C08CE00E942C0B0E94000A8111E8
:101460000C94340A0C943A0A62E070E081E091E056
:101470000C948C1262E070E081E091E00C94951283
:101480000E94310F882361F086E891E00E94370FB7
:1014900081E090E00E946E13892B11F40C94340FBC
:1014A000089580918501883039F460E086E891E004
:1014B0000E940F10109285010895CF93DF93D82FCB
:1014C000C92F0E94400A80E090E00E946E13892B91
:1014D00079F4ED2FFC2F80E090E0DC01A058BE4FA6
:1014E0002C912193019685309105B9F781E001C0D7
:1014F00080E0DF91CF910895CF93DF93D82FC92F4C
:101500000E94510AED2FFC2F80E090E02191DC0138
:10151000A058BE4F2C93019685309105B9F7DF9105
:10152000CF910895CF92DF92EF92FF920F931F9386
:10153000CF93DF93362F472F282FE82FF0E071113C
:1015400006C0EF56FB4F6491762F862F7BC0072F86
:1015500010E056E0659FC0011124CFEFD0E0BE013E
:101560000E941D2B5BEA5603C001579F900D11246A
:10157000830F911D830F911D982F990F980F7E0156
:10158000E01AF10AEE9ED001EF9EB00DFE9EB00D66
:1015900011248B2F499FA0011124452F55277E012F
:1015A000E41AF50AEE9EA001EF9E500DFE9E500D2E
:1015B00011246E01C91AD108C09E7001C19EF00CA1
:1015C000D09EF00C11240F2D1127C01BD10BCE9FE4
:1015D0008001CF9F100DDE9F100D11246230710528
:1015E00091F048F461157105E1F061307105B1F4D5
:1015F0009B2FE52F0AC06430710569F040F066301A
:10160000710579F00BC0912FEB2F822F0DC0922F17
:10161000EB2F852F09C0922FE12F06C0952FE22FC7
:1016200003C09B2FE22F812FF0E0EF56FB4F749108
:10163000E82FF0E0EF56FB4F6491E92FF0E0EF5612
:10164000FB4F8491DF91CF911F910F91FF90EF900D
:10165000DF90CF90089508958093950160931501D0
:101660000895CF93DF93762FE901682F842F0E948E
:10167000920A798368838A83DF91CF91089580915C
:101680004B02282F269530E02115310519F4817081
:10169000826005C02532310524F081708864809312
:1016A0004B02089588E090E00C94602BCF92DF927B
:1016B000EF92FF926B017C010E943F0BB701A601E4
:1016C00088E090E0FF90EF90DF90CF900C947E2B1D
:1016D000EBE4F2E083E0808311828FEF82838383E7
:1016E0001482ADE9B1E012968C9112978360129644
:1016F0008C9360817181828193810C94560B8091CF
:101700004B0280FF02C08695089580E00895809185
:101710004F02833018F48F5F80934F0260914B0229
:1017200070914C0280914D0290914E020C94560B98
:1017300080914F02882319F0815080934F0260916D
:101740004B0270914C0280914D0290914E020C948C
:10175000560B6091150170E080914B0280FF0AC02A
:101760008091950123E0829FC0011124805B9D4FF1
:101770000C9476118091940190911401891780F74F
:10178000E82FF0E09F01220F331FE20FF31FE05B11
:10179000FD4F1182108212828F5FF0CF90914B0229
:1017A00090FF16C09091940120911401921770F44B
:1017B000E92FF0E0DF01AA0FBB1FEA0FFB1FE05B80
:1017C000FD4F8183608342839F5FF0CF0C94A90B10
:1017D0000895CF93DF9300D01F92CDB7DEB79091DD
:1017E0004B0290FF0AC09E012F5F3F4F0E94310BBA
:1017F0004B8169818A810E94CE0B0F900F900F90D0
:10180000DF91CF910895CF93DF93EC01EC81F0E06D
:10181000E457FC4F4491EBE4F2E0628181810E9445
:10182000E90B8C818F5F8C83DF91CF910895CF93EB
:10183000DF93EC01EBE4F2E0438162818C810E9452
:10184000E90B8C818F5F8C83DF91CF9108950F938B
:101850001F93CF93DF9300D01F92CDB7DEB78C01DB
:1018600080918E0181110AC09E012F5F3F4F4FEF83
:101870006FEF0E94310B8A8180938E01F801848181
:10188000813051F028F0823061F440918E010AC01D
:1018900080918E0140E007C060918E0140E080E0C1
:1018A00003C040E080E060E00E94CE0BF80184813C
:1018B00090E0019663E070E00E94312B84830F90EA
:1018C0000F900F90DF91CF911F910F910895AF92DC
:1018D000BF92CF92DF92EF92FF920F931F93CF931D
:1018E000DF9300D01F92CDB7DEB7182FF62E042F4E
:1018F000E22E90914B0290FF7EC0E92FE695AE2F2D
:10190000B0E0AB5BBE4F8C9180939D019E7F923087
:1019100061F49E012F5F3F4F812F0E94310B4B815D
:1019200069818A810E94CE0B43C0823019F40091F4
:101930004E023EC0863019F410914C0239C08930F5
:10194000D9F38931A9F5E9518E2F8170D82EE6950A
:10195000F0E0E457FB4FA590B490C12CBB246091FC
:101960001301C61618F52C2D30E0A29EC001A39ECF
:10197000900DB29E900D112470E00E941D2B812FBE
:10198000D11002C0860F01C0861B90919401290FCF
:10199000311DA901440F551F240F351F205B3D4FFA
:1019A000402F6F2D0E94310BC394D9CF0E94A90BF9
:1019B00080914C02181308C080914D02F81204C0A7
:1019C00080914E02081729F080919F0182608093D8
:1019D0009F0110934C02F0924D0200934E02EE20B4
:1019E00051F060914B0270914C0280914D029091A8
:1019F0004E020E94560B0F900F900F90DF91CF91E7
:101A00001F910F91FF90EF90DF90CF90BF90AF901C
:101A10000895EBE4F2E09181282F4381628188E010
:101A2000890F0C94670C81E00C94090DEBE4F2E053
:101A30009181282F4381628188EF890F0C94670C74
:101A400081E00C94160DEBE4F2E0628121E1620F7B
:101A500008F46FEF282F438181810C94670C81E09B
:101A60000C94230DEBE4F2E0628121E1621B08F4A7
:101A700060E0282F438181810C94670C81E00C94F5
:101A8000320DEBE4F2E0438121E1420F08F44FEF25
:101A9000282F628181810C94670C81E00C94410DA8
:101AA000EBE4F2E0438121E1421B08F440E0282FFF
:101AB000628181810C94670C81E00C94500D20E0D0
:101AC0000C94670CFF920F931F93CF93DF93EC015D
:101AD000F12C0FEF10E060911301F616F0F48091F5
:101AE00094012F2D30E0280F311DC901880F991F57
:101AF000280F391F205B3D4F70E0C8010E94312B39
:101B0000962F8C8140914E0260914D02F99E800D7E
:101B100011240E94310BF394DECF0E94A90B9A810D
:101B20008C8190FF02C08F5F01C081508C83DF9158
:101B3000CF911F910F91FF9008959F92AF92BF9206
:101B4000CF92DF92EF92FF920F931F93CF93DF9389
:101B50008C01FC01828180FF03C0BB24BA9402C0C7
:101B6000BB24B394F801848181110EC0F1E0BF124F
:101B700006C08091130181508093900102C01092A1
:101B8000900181E0F8018483A12C80911301A816B3
:101B9000E0F580919401CA2CD12CE601C80FD11D2B
:101BA000CE01880F991FC80FD91FC05BDD4F198266
:101BB00018821A8234E0E32EF12C912C809190014E
:101BC000890D87FF03C090911301890F082E000C27
:101BD000990BC816D90691F480914E028E9DA001F2
:101BE0008F9D500D112455954795559547959E010C
:101BF00060914D0280914C020E94310B9B0CF1E0F0
:101C0000EF1AF108D9F6A394C0CF0E94A90B8091D6
:101C1000900191E0B91210C0811108C080911301A8
:101C2000815080939001F801148211C081508093FB
:101C30009001F801B4820BC090E00196609113010D
:101C400070E00E94312B80939001F8018483DF9132
:101C5000CF911F910F91FF90EF90DF90CF90BF90A9
:101C6000AF909F9008951F93CF93DF93EC018C81E9
:101C7000811109C081E08C8310928F0192E09093D2
:101C800012018093110180919401909114018917A0
:101C900070F4E82FF0E09F01220F331FE20FF31FD3
:101CA000E05BFD4F1182108212828F5FF0CF10E057
:101CB000609113011617C0F5E12FF0E070E0CF013D
:101CC0000E94312B20919401820F20918F01022ECE
:101CD000000C330B90E0E217F307CCF020911201D7
:101CE000022E000C330B2E173F078CF09C01220FA5
:101CF000331F820F931F9C01205B3D4F40914E028A
:101D000060914D0280914C020E94310B0BC0FC018E
:101D1000EE0FFF1F8E0F9F1FFC01E05BFD4F118236
:101D2000108212821F5FC4CF0E94A90B8091110103
:101D300020918F01280F20938F0190911201980F0D
:101D40009093120119165CF4022E000C330B409193
:101D5000130150E0415051092417350734F08195A3
:101D600080931101813009F41C82DF91CF911F9182
:101D700008950F931F93CF93DF938C01FC0184810F
:101D8000958101968170992795838483C0E0D5E57C
:101D900080911301C81700F5809194012C2F30E039
:101DA000280F311DC901880F991F280F391F205B8B
:101DB0003D4F4C2F4695F80184819581840F911DEC
:101DC000817040914E0260914D028D9F802D1124B3
:101DD0000E94310BCF5FDCCFDF91CF911F910F912C
:101DE0000C94A90B0F931F93CF93DF93EC0100E0AA
:101DF00010E080911301282F30E00217130724F51B
:101E0000909194019801290F311DA901440F551F8C
:101E1000240F351F205B3D4F869590E04C810817BD
:101E200019071CF4442331F002C0411103C0409152
:101E30004E0201C040E060914D0280914C020E9430
:101E4000310B0F5F1F4FD5CF0E94A90B8C8190E003
:101E50000196817099278C83DF91CF911F910F910B
:101E6000089580919F01089510929F01089525E0A3
:101E7000EBE4F2E0DC0101900D922A95E1F720916C
:101E80009D0130919E0140919F01FC012583368385
:101E90004783089560914B02669570E04BE050E0F7
:101EA00086E191E00E944B2B892B19F481E080930D
:101EB0009E010E945E2190939701809396018091EC
:101EC0009F01846080939F010895EDE9F1E0118204
:101ED000828184608283089590914B0290FF3AC082
:101EE0009170811102C0926006C0853210F0986432
:101EF00002C0880F982B90934B0280919F018160C4
:101F000080939F01662351F060914B0270914C02C7
:101F100080914D0290914E020E94560B60914B02AF
:101F2000669570E04BE050E086E191E00E944B2B1B
:101F3000892B19F00E94650F02C00E944A0F81E0B0
:101F40008093990140914E0260914D0280914C0224
:101F50000C945F0D0895682F90914B02969581E047
:101F6000890F853208F081E00C946C0F81E00C94AD
:101F7000AB0F682F90914B0296958FEF890F09F464
:101F800084E20C946C0F81E00C94B90F61E00C9426
:101F90006C0FEBE4F2E080818160808386950C9485
:101FA000C60F60E00C946C0FEBE4F2E080818E7F52
:101FB000808360817181828193810E94560B0E948F
:101FC000650FEDE9F1E08281816082832FEF80E788
:101FD00092E0215080409040E1F700C000000C9456
:101FE000A90B80914B0280FD0C94D40F0C94C90F67
:101FF000EBE4F2E080818E7F80830E94650FEDE943
:10200000F1E08281816082832FEF80E792E02150AE
:1020100080409040E1F700C000000C94A90B1F9392
:10202000CF93DF93EC01162F8F8180FF0FC0888143
:1020300080FF0AC080914B02816080934B028881AF
:1020400086950E946C0F02C00E94F80F8F8181FF5D
:1020500006C0212F4B816A8189810E94670C8F8184
:1020600082FF08C08E81882319F00E944A0F02C0A7
:102070000E94650F8F8183FF03C081E080939901E7
:10208000DF91CF911F91089580919C01811138C0FB
:10209000809132028160809332020E941B20811164
:1020A00004C00E9495200E94680B0E94520B60930E
:1020B0004B0270934C0280934D0290934E0280919C
:1020C0009F01836080939F016E7F61F40E94680B83
:1020D0000E94520B60934B0270934C0280934D020E
:1020E00090934E020E943F0B0E94650F80914B021D
:1020F00080FF03C086950E94D10F81E080939C01F0
:102100000895EF92FF920F931F93CF93DF938091E7
:102110009E01882309F4B1C080919D01E0914B029A
:10212000E695E81BE0939801823049F4F0E0E85727
:10213000FC4FE491CE2FD0E003E01CE049C0863094
:1021400049F4F0E0EB57FC4FE491CE2FD0E007E1EB
:102150001CE03EC0893051F4E695F0E0EE57FC4FAC
:10216000E491CE2FD0E002E61DE032C08F3051F472
:10217000E695F0E0E158FC4FE491CE2FD0E00DE978
:102180001DE026C0853149F4F0E0E458FC4FE491AD
:10219000CE2FD0E003E31EE01BC0883181F08332F4
:1021A00039F4EAE7F3E0C591D49107E21CE010C0EE
:1021B000843251F4C4EFD1E002EF1EE009C0C8EE52
:1021C000D3E009EB1EE004C0C0EDD7E00BE21BE05A
:1021D00080919901882389F0109299010E945E21D3
:1021E0009E0120953095820F931F909397018093C5
:1021F000960110929B0110929A0180919601909104
:1022000097010E946A218C179D07B8F18091930174
:102210008823B1F0109293018091910190919201E5
:102220000E946A218033954758F00E945E21909366
:1022300092018093910180919F01886080939F011A
:10224000E0909A01F0909B01E0919601F091970146
:10225000CE0FDF1FD0939701C093960186E991E0DE
:10226000F801099580919A0190919B01892B29F49D
:10227000EF2819F081E080939301DF91CF911F91B6
:102280000F91FF90EF9008952BB1342F30952323B9
:102290003BB1432B3FB7F894FC01680F791FE61759
:1022A000F70789F0819198E04BB9000000C087FFE3
:1022B0002BB9880F000000C000C000C02BB900C0BF
:1022C0009A9591F7ECCF3FBF08952AB1242B2AB9F4
:1022D0009B01220F331F620F731F0E94441187EC72
:1022E00090E00197F1F700C00000089548E00C94D9
:1022F00065110F931F93CF93DF93C62FD42F122F07
:10230000FC0182818823C9F06093A2010E945E21B2
:102310009093A1018093A00180E28C0F883008F097
:1023200057C0C77081E001C0880FCA95EAF7DF91F6
:10233000CF911F910F910C94DB168091A20168132D
:1023400030C08091A0019091A1010E946A2186393C
:10235000910538F500E20D0FCD17B9F080E28C0F32
:10236000883040F4C77081E001C0880FCA95EAF751
:102370000E94E216083028F581E09D2F977001C079
:10238000880F9A95EAF70E94DB16812F0E94C816E3
:102390000830F0F4D77081E001C0880FDA95EAF7D1
:1023A0000AC080E28C0F883098F4C77081E001C0C9
:1023B000880FCA95EAF7DF91CF911F910F910C9486
:1023C000E216812FDF91CF911F910F910C94C816C7
:1023D000DF91CF911F910F9108959C01CB01203F78
:1023E0004CE53407F9F078F4283DFCE53F07B9F0F7
:1023F000293D4CE5340711F1273D3C4531F526E2F6
:1024000041EE61EE1EC0223FFCE53F0799F070F0FF
:10241000233F3C45D1F427E245EE66EE12C027E2A9
:1024200045EE0EC026E241EE60EE0BC027E245EE1F
:1024300064EE07C026E241EE62EE03C028E241E00E
:1024400065EE0E94791180E00895FC018281882365
:1024500019F01092A201089581E008958EE1489B41
:1024600002C08150E1F7489BFECF0895589880E262
:102470008A95F1F7589A0895FC012AE02A95F1F718
:1024800090E020E080E031E0261779F040E14A95C5
:10249000F1F7880F489B02C08160932700C00000BD
:1024A00040E14A95F1F72F5FEFCF20E12A95F1F750
:1024B00029B100C0000030E13A95F1F72170922770
:1024C0002081920F90830895EF92FF920F931F93B4
:1024D000CF93DF931F92CDB7DEB719828C017C01B9
:1024E000E60EF11C0E151F0559F00E942E1268E031
:1024F000CE0101960E943C12F80181938F01F2CF28
:1025000081E09981911180E00F90DF91CF911F912F
:102510000F91FF90EF9008959093A5018093A401EF
:102520006093A301509A589A08959093A5018093BF
:10253000A4016093A3015098589AE89AE9E6F0E064
:1025400080818C7F80830895615091E001C0990F54
:102550006A95EAF720E031E0992361F0492F48239A
:1025600019F0589A232701C0589840E24A95F1F78C
:102570009695F2CF222311F0589A01C0589880E224
:102580008A95F1F758980895FF920F931F93CF9370
:10259000DF93EC018C01060F111DC017D10741F02C
:1025A000F9900E94361268E08F2D0E94A412F5CF98
:1025B000DF91CF911F910F91FF9008951F920F927D
:1025C0000FB60F9211240F931F932F933F934F93A6
:1025D0005F936F937F938F939F93AF93BF93EF938B
:1025E000FF93CF93DF931F92CDB7DEB719820E947E
:1025F0002E1267E0CE0101960E943C12382F3695CC
:1026000036953695932F96959570232F2570920FBA
:10261000292F2370969596958770920F891348C03D
:102620008981811145C08091A301831708F440C0BE
:1026300080E18A95F1F7589A509AA2E0AA95F1F7AD
:1026400000C00091A4011091A501B8E03B9F000DCE
:10265000111D11245898F8016581662321F08681A7
:1026600097810E94C4120E943612F0E1FA95F1F7A8
:1026700058985098589A80E18A95F1F7D8011296A7
:102680006C911297662369F013968D919C91149723
:102690000E946412D801ED91FC91811105C082E085
:1026A00004C0D801ED91FC9188E080830E942E1235
:1026B0000F90DF91CF91FF91EF91BF91AF919F91DB
:1026C0008F917F916F915F914F913F912F911F91CA
:1026D0000F910F900FBE0F901F9018950F931F939F
:1026E000CF93DF932091A30130E0281739070CF432
:1026F00071C09C0193E0220F331F9A95E1F7C091BE
:10270000A401D091A501C20FD31FF894509A5898F4
:1027100045E04A95F1F70000982F969595708570E1
:10272000890F982F937086958695890F8901082BBC
:102730000E94361284E08A95F1F700C067E0802F8E
:102740000E94A41240E14A95F1F75098589A48998E
:1027500002C000C0FCCF87E090E0489B0EC001970C
:1027600051F4509A589AE881F98181E080837894F5
:1027700081E090E031C000C0F0CF6D81662381F030
:102780008E819F810E94641281110AC0509A589ACA
:10279000E881F98182E08083789482E090E01CC037
:1027A0000E942E1280E28A95F1F75898509A40E1E3
:1027B0004A95F1F76A81662321F08B819C810E9402
:1027C000C4120E943612E881F9811082789480E068
:1027D00090E002C084E090E0DF91CF911F910F91D3
:1027E00008959093AB018093AA010895E091AA0106
:1027F000F091AB01309721F00190F081E02D099428
:1028000080E00895E091AA01F091AB01309721F0AA
:102810000280F381E02D09940895E091AA01F091DE
:10282000AB01309739F022E0DC012C930480F58174
:10283000E02D099408952091A8013091A90128174D
:10284000390771F09093A9018093A801E091AA0142
:10285000F091AB01309721F00680F781E02D0994CB
:1028600008952091A6013091A7012817390771F02A
:102870009093A7018093A601E091AA01F091AB018A
:10288000309721F00084F185E02D0994089585B7F3
:10289000806885BF85B7806885BF089508950C94CA
:1028A0004E140C944F140C944E140E9447140E9422
:1028B0001F0A0C9451140E9455210E94A3080E94E3
:1028C000CB210E9444100C945314BF92CF92DF92FC
:1028D000EF92FF920F931F93CF93DF93CDB7DEB7A5
:1028E0002A970FB6F894DEBF0FBECDBF0E949309A2
:1028F0000E94000A811111C08FEF89838A831B8295
:102900000E945E218160782F9D838C8349815A814A
:102910006B818D810E940E1554C08DEAC82E81E016
:10292000D82E00E010E0B02E802F0E949C08E82EE8
:10293000F60121916F01F82EF22631F40F5F1F4F3F
:102940000A30110581F7D8CF8091320281FD0E94B3
:10295000A20880E090E02F2D30E0482FB901082E2A
:1029600002C0759567950A94E2F760FF25C08E83D3
:10297000BF8281E090E06C0102C0CC0CDD1C4A9566
:10298000E2F72E2D30E02C213D21232B09F480E0AD
:1029900088870E945E218160782F9A8789874E817F
:1029A0005F8168858A850E940E15F801E355FE4F08
:1029B00080818C25808305C001968730910569F65A
:1029C000BDCF0E945E230E94F6139091AC0189173F
:1029D000A9F00E94F6138093AC012A960FB6F894E2
:1029E000DEBF0FBECDBFDF91CF911F910F91FF9042
:1029F000EF90DF90CF90BF900C9400042A960FB612
:102A0000F894DEBF0FBECDBFDF91CF911F910F9124
:102A1000FF90EF90DF90CF90BF900895CF93DF931A
:102A2000CDB7DEB72B970FB6F894DEBF0FBECDBF84
:102A30004F83588769877A878B87DE01119686E0F6
:102A4000FD0111928A95E9F785E0FE013796019024
:102A50000D928A95E1F749815A816B817C818D8144
:102A60009E810E94571C2B960FB6F894DEBF0FBEB6
:102A7000CDBFDF91CF910895FC01808191810E94AB
:102A80002B1F0895882309F41AC18238C1F40E94CB
:102A9000F61381FD14C169E3809121019091220117
:102AA0000E94CA200E94B81F2FEF81EE94E02150AF
:102AB00080409040E1F700C0000069E319C083380E
:102AC000F9F40E94F61380FDFAC063E580912101BC
:102AD000909122010E94CA200E94B81F2FEF81EE20
:102AE00094E0215080409040E1F700C0000063E591
:102AF00080912101909122010E94CC200C94B81F5A
:102B00008438C1F40E94F61382FDD9C067E4809135
:102B10002101909122010E94CA200E94B81F2FEF2C
:102B200081EE94E0215080409040E1F700C0000029
:102B300067E4DECF9CEF980F913A40F4682F8091C4
:102B40002101909122010E94CA20D8CF90E2980FD3
:102B5000983050F4877091E001C0990F8A95EAF798
:102B6000892F0E946D1FCACF9BE5980F933070F498
:102B7000853A29F0863A31F083E890E005C081E893
:102B800090E002C082E890E00C941B1498E5980F46
:102B9000973108F08EC0883A09F445C0893A09F4A3
:102BA00045C08A3A09F445C08B3A09F445C08C3ACD
:102BB00009F445C08B3B09F445C08C3B09F445C082
:102BC0008D3A09F445C0803B09F445C08E3A09F4BA
:102BD00045C08F3A09F445C0813B09F445C0823BAA
:102BE00009F445C0833B09F445C0843B09F445C062
:102BF000853B09F445C0863B09F445C0873B09F491
:102C000045C0883B09F445C0893B09F445C08D3B6C
:102C100009F445C08E3B09F445C08A3B09F445C020
:102C200080E090E044C082EE90E041C089EE90E008
:102C30003EC08AEE90E03BC085EB90E038C086EB6A
:102C400090E035C083EB90E032C084EB90E02FC081
:102C500087EB90E02CC08CEC90E029C08DEC90E0EC
:102C600026C083E891E023C08AE891E020C082E991
:102C700091E01DC084E991E01AC081E292E017C0A2
:102C800083E292E014C084E292E011C085E292E017
:102C90000EC086E292E00BC087E292E008C08FE6A9
:102CA00090E005C080E790E002C08AE292E00C94D8
:102CB0003114803F20F00E9466220C945323089523
:102CC000882309F464C0823879F40E94F61381FFE6
:102CD0005EC069E380912101909122010E94CA2087
:102CE0000E94B81F69E310C08338B1F40E94F61344
:102CF00080FF4DC063E580912101909122010E94E7
:102D0000CA200E94B81F63E58091210190912201A1
:102D10000E94CC200C94B81F843879F40E94F613DA
:102D200082FF35C067E480912101909122010E94C9
:102D3000CA200E94B81F67E4E7CF9CEF980F913A32
:102D400010F4682FE1CF90E2980F983050F487701C
:102D500091E001C0990F8A95EAF7892F0E94731FAD
:102D6000D9CF9BE5980F933020F480E090E00C944D
:102D70001B1498E5980F973120F480E090E00C94B4
:102D80003114803F20F00E94CE220C9453230895EA
:102D9000CF93C82F0E944215C93349F42FEF83EC1B
:102DA00099E0215080409040E1F700C000008C2F56
:102DB000CF910C946016882321F00E946D1F0C9413
:102DC000B81F0895882321F00E94731F0C94B81F28
:102DD00008958F929F92AF92BF92DF92EF92FF92EF
:102DE0000F931F93CF93DF937C01062FC72FFC0116
:102DF000158112951F70D281D1110E948A1F0E94E5
:102E0000631F882379F0DD2369F080E2800F88302A
:102E100048F082E00E9402200E94631F91E0D82EB9
:102E2000D92601C0D12CBC2EB2948FE0B8228B2DB4
:102E300090E0FC01E859FF4F0C94452B8C2F807FCC
:102E4000CF70882311F0C295C07FDD2399F0CC2389
:102E500009F4B9C180E2800F883010F0011104C07C
:102E60008C2F0E946D1F03C08C2F0E947D1F0E941B
:102E7000B81FA9C1802F0E946016CC2309F4C8C1D5
:102E800080E2800F883010F0011104C08C2F0E9466
:102E9000731F03C08C2F0E94831F0E94B81FB8C1EC
:102EA0008C2F807FCF70803211F0C295C07F0023BD
:102EB00019F00130C9F022C0DD2371F0112341F077
:102EC000113031F40E949D1F8C2B0E94A51FA0C1C0
:102ED0000E949D1F8C2B30C1112319F0113009F471
:102EE00097C10E94AE1F18C0DD2321F0163008F0F4
:102EF0008FC10EC0153008F08BC10EC0DD2351F01C
:102F0000112331F0F701858180FF5DC18F708583CA
:102F10008C2F12C1111168C18C2F14C18C2F869572
:102F20008695837019F0813061F072C1DD2321F044
:102F3000802F9C2F937002C080E090E00E941B14B1
:102F400074C1DD2321F0802F9C2F937002C080E09C
:102F500090E00E94311469C1DD23F9F0053F51F082
:102F6000063F71F0043FA9F4809198029091990274
:102F700081600BC08091980290919902826005C097
:102F80008091980290919902846090939902809325
:102F90009802802F0E9466221EC0053F51F0063F16
:102FA00071F0043FA9F480919802909199028E7F6C
:102FB0000BC080919802909199028D7F05C08091FD
:102FC0009802909199028B7F909399028093980236
:102FD000802F0E94CE220E94532327C18C2F837002
:102FE00009F047C0D1111DC1202F229526952770C9
:102FF000220F220F602F6F70862F90E0A0E0B0E0CC
:103000004C015D01022E04C0880C991CAA1CBB1C3B
:103010000A94D2F704FF10C08FE090E0A0E0B0E087
:1030200004C0880F991FAA1FBB1F2A95D2F780954D
:103030009095A095B09503C080E090E0DC01C69526
:10304000C695C370BC01CD01682979298A299B29BD
:10305000C23049F058F4C13019F00E94A81DE1C0F7
:103060000E94961DDEC00E94BA1DDBC00E94941D06
:10307000D8C0DD2319F08C2F817001C0869588237C
:1030800009F4CFC0202F229526952770220F220FFA
:10309000602F6F70862F90E0A0E0B0E04C015D01E2
:1030A000022E04C0880C991CAA1CBB1C0A94D2F7DF
:1030B00004FF10C08FE090E0A0E0B0E004C0880FF3
:1030C000991FAA1FBB1F2A95D2F780959095A095AE
:1030D000B09503C080E090E0DC01C695C695C37052
:1030E000BC01CD01682979298A299B29C23049F080
:1030F00058F4C13019F00E946D1E93C00E945B1EEF
:1031000090C00E947F1E8DC00E94CE1D8AC0802F5D
:1031100090E0FC01E05EF109E531F10508F04FC0F7
:10312000E858FF4F0C94452B0F708C2F8F71DD23C7
:1031300031F00E94F41D802F0E94DB1669C00E94AE
:10314000151E802F0E94E21663C0DD2341F015306A
:1031500008F05EC08C2F8F710E943A1E59C0163045
:1031600008F056C0F7CFDD2339F08C2F8F710E9405
:10317000F41D4EC0DD23C9F38C2F8F710E94151EE4
:1031800047C0DD2329F08C2F8F710E94DF1D40C0C6
:103190000E94DA1D3DC0DD2349F0CF718C2F0E94C3
:1031A000F41D63E08C2F0E94ED1F32C081E00E946D
:1031B0000220123068F182E00E94022029C0DD2343
:1031C00031F0112391F2802F0E94421521C011236A
:1031D00099F2093349F4FFEF23EC89E0F1502040E4
:1031E0008040E1F700C00000802F0E94601610C0F0
:1031F0004C2F4F70602FC7010E941B060E94051DB7
:1032000014C04C2F4F70602FC7010E941E060DC0C6
:1032100098E0B91631F0B91640F086EF8B0D823088
:1032200020F40E94F6130E940004DD20E1F00E94C9
:103230005F1F80FD18C0F70112820E94591F0E9473
:10324000F41DC7010E943F190E94591FDF91CF91C1
:103250001F910F91FF90EF90DF90BF90AF909F90E4
:103260008F900C94151EDF91CF911F910F91FF90BD
:10327000EF90DF90BF90AF909F908F9008950F9345
:103280001F93CF93DF93EC01988189812B813C813F
:10329000232B31F08F3F31F481E09F3F19F403C0BD
:1032A00081E001C080E080FD13C0CE010E941704C0
:1032B000882371F0688179818A810E94361F8C0190
:1032C0000E94911E0E94821DB801CE010E94E91643
:1032D000DF91CF911F910F9108950E948A1F0E9444
:1032E0009A1F0E94B81F0E94F9230E94532380E076
:1032F00090E00E941B1480E090E00C9431148091C7
:103300002101909122010E94CE200C946D190E94FF
:103310007A1F0C947F19E92FE295EF704E2F50E041
:10332000FA013297EE30F105B0F4E357FF4F0C94F9
:10333000452B803F91F018F4803E68F40EC0843F26
:1033400051F40BC0803E48F0813F29F406C093FB46
:10335000882780F9089580E0089581E008950E940B
:103360002B1F0E948B190895CF93DF9300D000D0BC
:103370001F92CDB7DEB70F900F900F900F900F9068
:10338000DF91CF910895CF93DF9300D000D000D08C
:10339000CDB7DEB726960FB6F894DEBF0FBECDBF11
:1033A000DF91CF9108951F93CF93DF93C091B80120
:1033B00016E08091B901C81799F0D0E01C9FF00188
:1033C0001D9FF00D1124E654FE4F40815181628112
:1033D0007381848195810E94C3192196C770E9CFBA
:1033E000DF91CF911F9108954091EA015091EB0137
:1033F0006091EC017091ED018091EE019091EF01EF
:103400000C94C319CF938091EF0182958F7009F0CE
:103410005FC08091EC01882309F45AC08091B80103
:10342000B091B9017091EA01A091EB014091ED01D9
:103430005091EE0191E07F3F09F090E0692FC6E0E6
:103440008B1709F445C04115510521F0AF3F21F01C
:1034500020E003C021E001C0262F90E020FD35C010
:10346000C89FF001C99FF00D1124E654FE4F218141
:103470002A132BC02081271328C02281211125C0A7
:10348000238134812417350710F421503109241B7E
:10349000350B26393105C8F42091EF012F702061DA
:1034A0002093EF0126E0289FF001299FF00D1124C1
:1034B000E154FE4F80818F70806180838AEE91E0BD
:1034C0000E943F19CF910C94D31901968770B8CF01
:1034D000CF910895AF92BF92CF92DF92EF92FF9279
:1034E0000F931F93CF93DF93CDB7DEB761970FB6DE
:1034F000F894DEBF0FBECDBF8C0185E0F801DE0180
:103500001D9601900D928A95E1F7D8014C91119684
:103510005C9111971296EC903091EA016091EB0169
:103520008091ED019091EE01009731F06F3F31F401
:1035300021E03F3F19F403C021E001C020E0B22F99
:10354000B170BB2E20FD60C1F801C380D480A09073
:10355000EC01AA2009F4EEC02091EF01C816D906AB
:1035600028F0D601A81BB90BCD0104C08095909519
:103570008C0D9D1DFF24F3948639910580F0F12C6C
:10358000207F09F09CC07C2DD98AC88A6E2D89893C
:103590000E94B4198AEE91E00E943F192DC1822F3A
:1035A000807F09F054C0561314C0431312C0FE2C80
:1035B000E1100FC02F7020612093EF010E94F419D9
:1035C0008AEE91E00E943F198091EF01F801858316
:1035D0005CC1CD2831F05F3F31F481E04F3F19F4F9
:1035E00003C081E001C080E080FD03C081E08E2542
:1035F00002C080E090E0F82FF170FF2E80FF1CC029
:103600008091B8012091B90136E0821709F41AC1FE
:1036100090E0389FF001399FF00D1124E654FE4FE1
:103620006181561306C06081461303C06281E612B1
:1036300003C001968770E9CFFE2CEE2009F425C166
:103640008091EF0181608093EF01F12C1EC1561330
:1036500009C0431307C0E11005C08091EF01F801D4
:103660008583A4C04D875E878D859E850E94AF1996
:10367000882379F1EE2069F12091EF01822F829564
:103680008F7090E0029774F08091EA019091EB01C5
:1036900098878F831986DB86CA862C87CE0107968A
:1036A0000E943F1986E0F801AAEEB1E001900D9268
:1036B0008A95E1F70E94021A0E94F4190DC056176C
:1036C00071F04D875E878D859E850E94AF198111AF
:1036D0001AC0C8010E943F19FF24F394D6C04313B7
:1036E000F0CFE110EECF8091EF01F8018583C801A2
:1036F0000E943F1986E0EAEEF1E0DF011D928A9513
:10370000E9F7FA2CC2C0EE2021F32091EF01822FBD
:1037100082958F7090E002972CF28091EA0190914F
:10372000EB019A8389831B82DD82CC822E83CE01BA
:103730000196B6CFC816D90628F0F601E81BF90B9A
:10374000CF0104C0809590958C0D9D1D8639910503
:1037500048F0F12C7C2DD98AC88A6E2D89890E9467
:10376000B4194AC0FE2CEE2009F4B3CF561333C06F
:10377000431331C02091EF0120FD24C0822F829598
:103780008F70482F50E041155105E1F0D801159692
:103790002C9315974F30510549F08F5F982F9295D4
:1037A000907F822F8F70892B15968C93C8010E9471
:1037B0003F1986E0F801AAEEB1E001900D928A95DA
:1037C000E1F73DC086E0F801AAEEB1E001900D926C
:1037D0008A95E1F75AC04D875E878D859E850E9448
:1037E000AF1981115FCF8091EF0181608093EF016C
:1037F000C8010E943F1949C0EAEEF1E086E0DF010E
:103800001D928A95E9F71BC0EE2009F462CF4D871F
:103810005E878D859E850E94AF19F82E882309F456
:1038200058CF86E0F801AAEEB1E001900D928A959A
:10383000E1F78AEE91E00E943C150E94021A0E9474
:10384000F41923C04D875E878D859E850E942B1FAE
:10385000292F22952F70223028F49F7039F0811182
:1038600005C00BC0243028F49F7049F4805E883076
:1038700020F0C8010E943F19BF2CFB2C06C0D801C4
:1038800015969C91907F91F7F8CF8F2D61960FB68A
:10389000F894DEBF0FBECDBFDF91CF911F910F9186
:1038A000FF90EF90DF90CF90BF90AF9008951F935F
:1038B000CF93DF93CDB7DEB72C970FB6F894DEBF6A
:1038C0000FBECDBF4F83588769877A878B879C87C8
:1038D000CE0107960E946A1A8823D1F09F818885BD
:1038E0002A853B85232B31F08F3F31F481E09F3FC8
:1038F00019F403C081E001C080E080FD47C04F8122
:10390000588569857A858B859C850E94C3193EC040
:1039100086E0FE013796DE01119601900D928A95A0
:10392000E1F7FF81E8856A857B856115710531F0D6
:10393000EF3F31F481E0FF3F19F403C081E001C0A3
:1039400080E080FD23C02091B90130E0C9010196DB
:10395000877099274091B80150E084179507F1F1DD
:10396000F983EA837D836C8396E0929FD001939FD5
:10397000B00D1124A654BE4FFE01319601900D9258
:103980009A95E1F78093B9010E94D31916E08091CE
:10399000B8019091B901891771F1189FC0011124E4
:1039A00086549E4F0E946A1A882329F1E091B8013B
:1039B0001E9FF0011124E654FE4F40815181628127
:1039C0007381848195810E94C3198091B80190E030
:1039D0000196877099278093B801D9CF0E948719E3
:1039E0001092B9011092B801EAEEF1E086E0DF0131
:1039F0001D928A95E9F72C960FB6F894DEBF0FBE9C
:103A0000CDBFDF91CF911F910895EF92FF920F9359
:103A10001F93CF93DF938C01892B09F46CC0F12C99
:103A2000EE24E394E8012196F8018491843740F470
:103A3000843008F051C0813081F0823019F15BC0D0
:103A4000853709F444C0A8F19CE7980F903708F037
:103A500052C08F770E94601641C00E5F1F4FFE015B
:103A6000849190E2980F983050F48770FE2D01C039
:103A7000FF0F8A95EAF78F2F0E948D1F14C00E94B6
:103A800042152DC00E5F1F4FFE01849190E2980FEA
:103A9000983060F48770FE2D01C0FF0F8A95EAF719
:103AA0008F2F0E94931F0E94B81F19C00E9460169A
:103AB00016C00E5F1F4FFE01C491CC2381F08FE929
:103AC0009FE00197F1F700C00000C150F6CF0E5FF4
:103AD0001F4FFE01F49003C00E9442158E018F2DEE
:103AE000882309F49FCFEFE9FFE03197F1F700C099
:103AF00000008150F5CFDF91CF911F910F91FF9082
:103B0000EF900895089508950C94831D0C94841DDE
:103B10000E94861D609321027093220280932302EB
:103B2000909324020C946D190C94881D0F931F938D
:103B3000009121021091220220912302309124024F
:103B4000602B712B822B932B1F910F910C94881D4E
:103B50000F931F93009121021091220220912302C2
:103B60003091240260237123822393231F910F91AC
:103B70000C94881D0F931F93009121021091220233
:103B800020912302309124026027712782279327F6
:103B90001F910F910C94881D0C94831D0E94CC1DC5
:103BA00060931D0270931E0280931F029093200267
:103BB0000C946D1960E070E0CB010C94CE1D0F9356
:103BC0001F9341E050E060E070E08A019B0104C077
:103BD000000F111F221F331F8A95D2F7C901B801A8
:103BE0001F910F910C94CE1D0F931F9341E050E055
:103BF00060E070E004C0440F551F661F771F8A9570
:103C0000D2F780911D0290911E02A0911F02B091E7
:103C100020028A019B01082B192B2A2B3B2BC9015F
:103C2000B8011F910F910C94CE1D0F931F9341E08B
:103C300050E060E070E004C0440F551F661F771F1E
:103C40008A95D2F7409550956095709580911D02A8
:103C500090911E02A0911F02B09120028A019B0147
:103C6000082319232A233B23C901B8011F910F916F
:103C70000C94CE1D0F931F9341E050E060E070E084
:103C800004C0440F551F661F771F8A95D2F7809195
:103C90001D0290911E02A0911F02B09120028A0184
:103CA0009B01082719272A273B27C901B8011F9123
:103CB0000F910C94CE1D0F931F9300911D02109134
:103CC0001E0220911F0230912002602B712B822B4B
:103CD000932B1F910F910C94CE1D0F931F93009166
:103CE0001D0210911E0220911F02309120026023BC
:103CF0007123822393231F910F910C94CE1D0F9358
:103D00001F9300911D0210911E0220911F023091FD
:103D1000200260277127822793271F910F910C940F
:103D2000CE1D089527E0929F800D1124E82FE6957F
:103D3000E695E695877051E001C0550F8A95EAF740
:103D400085E0E89FF0011124E051FE4F20E030E0D3
:103D500070E04081CB01022E02C0969587950A94AF
:103D6000E2F78170819584278523842781932F5FD3
:103D70003F4F2530310569F7089527E0929F800D68
:103D80001124682F669566956695982F977085E043
:103D9000689FB001112440E050E080E0FB01E40F97
:103DA000F51FE051FE4F208130E0092E02C036950C
:103DB00027950A94E2F721703327042E01C0220FC1
:103DC0000A94EAF7822B4F5F5F4F4530510531F778
:103DD0000895BF92CF92DF92EF92FF920F931F93BD
:103DE000CF93DF938C01C0901D02D0901E02E09013
:103DF0001F02F09020028091210290912202A09156
:103E00002302B0912402C82AD92AEA2AFB2ACFE148
:103E1000D0E0D701C6010C2E04C0B695A7959795A2
:103E200087950A94D2F780FD04C0219790F7B12CB2
:103E300007C0BC2EB8018C2F0E943A060197A9F347
:103E40008B2DDF91CF911F910F91FF90EF90DF901D
:103E5000CF90BF900895CF93DF93EC010E94E91EAD
:103E6000BE010E943A06DF91CF9108951F93CF9330
:103E7000DF93EB019091B701992321F0CB010E94D0
:103E80002B1F13C0882349F0CB010E94E91E182F75
:103E9000682FCE010E94921E04C0CB010E94BD1E5D
:103EA000182FBE01812F0E943A06DF91CF911F91FA
:103EB0000895809125028595859585950895809131
:103EC00025028770089590912502977081E009F48A
:103ED00080E0089580913102089590913102892BFC
:103EE00080933102089580959091310289238093C7
:103EF0003102089510923102089590913002892B79
:103F000080933002089580959091300289238093A8
:103F10003002089510923002089590912F02892B5B
:103F200080932F020895809590912F02892380938A
:103F30002F02089510922F0208958091260208956D
:103F400008950C94A01F0C94A11F9091260298171D
:103F500021F0809326020C94A31F089580912602DD
:103F6000882329F01092260280E00C94A31F089564
:103F7000E0912101F0912201809131028083E09152
:103F80002101F0912201908180913002892B808360
:103F9000E0912101F0912201908180912F02892BE3
:103FA000808380912602882381F0E0912101F091A5
:103FB00022019081892B808380912101909122019F
:103FC0000E94972081110E94AE1F80912101909143
:103FD00022010C9402140C94A01F98E0899F900178
:103FE0001124262B209325020E94F41D8091250286
:103FF0008595859585950C94EB1F1092250280E0A0
:104000000C94EB1F2091250280958223809325023A
:10401000982F977079F430E0482F082E000C550B3C
:104020002417350739F08595859585950E94151ECD
:104030000C94FD1F089580E090E00E94662B21E023
:104040008D3E9E4F09F020E0822F089582E090E09F
:104050000C94582B83E090E00C94582B84E090E073
:104060000C94582B682F84E090E00C946C2BAB01DF
:10407000BC018FE090E00C947E2BAB01BC0183E18E
:1040800090E00C947E2B60E070E0CB010C943D201E
:1040900060E070E0CB010E9437200C9443206DEE6D
:1040A0007EEF80E090E00E948A2B60E082E090E06A
:1040B0000E946C2B60E083E090E00E946C2B1092D9
:1040C000210210922202109223021092240260E038
:1040D00084E090E00E946C2B60E085E090E00E941C
:1040E0006C2B60E086E090E00E946C2B6FEF87E025
:1040F00090E00E946C2B40E050E0BA0188E090E034
:104100000E947E2B60E08DE090E00E946C2B40E0EE
:1041100050E0BA0188E190E00E947E2B60E087E1E8
:1041200090E00E946C2B0C9448200C944F20FC01D2
:10413000329697E080E0915029F021912223D9F323
:104140008F5FF9CF08959C01FC0132969FEF80E0CC
:104150004191461789F09F3F19F4411101C0982FF2
:104160008F5F8630A9F79F3F39F0F901E90FF11D04
:1041700097FDFA956283089508959C012A5F3F4F49
:10418000FC014281461301C01282019682179307F7
:10419000B9F708950C94A3200C94BD20029626E054
:1041A000FC0111922A95E9F7089508950C94D52001
:1041B0000C94D520CF930E94D8200E9493090E948E
:1041C000D620C0E08C2F0E949C08811104C0CF5FD4
:1041D000CA30C1F701C081E0CF9108950C94D52079
:1041E0000C94EE200E94F0208091A402843049F1CA
:1041F0001092330220E488E190E00FB6F894A8957D
:10420000809360000FBE2093600080E00E94000455
:104210000E94F02083B7817F846083BF83B7816071
:1042200083BF7894889583B78E7F83BF0FB6F89449
:10423000A895809160008861809360001092600072
:104240000FBE08950C94D5200E9487190E94F61382
:104250000E9400040C9422211F920F920FB60F921D
:1042600011248F939F93AF93BF9380913302811159
:1042700013C080919A0290919B02A0919C02B091F0
:104280009D024196A11DB11D80939A0290939B02BD
:10429000A0939C02B0939D02BF91AF919F918F918B
:1042A0000F900FBE0F901F90189582E084BD93E091
:1042B00095BD9AEF97BD80936E0008952FB7F8943F
:1042C00080919A0290919B02A0919C02B0919D02D4
:1042D0002FBF0895CF92DF92EF92FF920F931F931B
:1042E0002FB7F89440919A0250919B0260919C02E2
:1042F00070919D022FBF6A017B01EE24FF248C0187
:1043000020E030E0C016D106E206F30610F441507A
:1043100051099A01281B390BC9011F910F91FF9078
:10432000EF90DF90CF90089578941F920F920FB680
:104330000F9211248F939F93AF93BF9380919A0212
:1043400090919B02A0919C02B0919D020196A11DAB
:10435000B11D80939A0290939B02A0939C02B0930C
:104360009D02BF91AF919F918F910F900FBE0F90C3
:104370001F90189587E797E79093010880930008AE
:104380009AE088E10FB6F894A895809360000FBE7C
:1043900090936000FFCF0E941B20811102C00E94F9
:1043A00095200E942620809332020E942E2090E0C9
:1043B00090939F0280939E020E942A20682F70E0B3
:1043C00080E090E00C94941D8091370280FF0BC038
:1043D0006091260185E0689FB0011124759567956D
:1043E000759567952BC081FF09C06091260185E016
:1043F000689FB00111247595679520C082FF07C0A2
:104400006091260185E0689FB001112417C090914A
:1044100036029923D1F060912501961788F72091F3
:10442000260185E0289F90011124929FA001939F6F
:10443000500D112470E0CA010E94312B60387105C3
:1044400040F46115710519F406C065E070E0862F2F
:1044500008958FE7089581E008958091370280FFE5
:1044600008C06091240170E0759567957595679512
:1044700021C081FF06C06091240170E075956795A9
:1044800019C082FF04C06091240170E010C09091B7
:104490003602992399F0609123019617A0F7809135
:1044A0002401899FC001112470E00E94312B6038E3
:1044B000710540F46115710519F406C061E070E002
:1044C000862F08958FE7089581E00895803F21F4B5
:1044D0000E94E421819504C0813F29F40E94E421D7
:1044E00080933B020895823F21F40E94E42181954C
:1044F00004C0833F29F40E94E42180933A02089586
:10450000893F19F40E942D2205C08A3F31F40E9490
:104510002D22819580933C0208958B3F21F40E94C7
:104520002D22819504C08C3F29F40E942D22809376
:104530003D020895843F21F480913902816017C0C3
:10454000853F21F480913902826011C0863F21F4B9
:104550008091390284600BC0873F21F48091390239
:10456000886005C0883F31F4809139028061809372
:10457000390208958D3F21F48091370281600BC08C
:104580008E3F21F480913702826005C08F3F29F46D
:10459000809137028460809337020895803F39F418
:1045A00080913B0287FF6CC010923B0269C0813F43
:1045B00029F480913B021816BCF362C090913A0234
:1045C000823F29F497FF5CC010923A0259C0833FA2
:1045D00019F41916CCF354C0893F41F480913C0280
:1045E00018160CF04DC010923C024AC08A3F29F4C4
:1045F00080913C0287FF44C0F6CF8B3F39F4809115
:104600003D0287FF3DC010923D023AC08C3F29F425
:1046100080913D021816BCF333C0843F21F4809191
:1046200039028E7F17C0853F21F4809139028D7F3A
:1046300011C0863F21F4809139028B7F0BC0873FE8
:1046400021F480913902877F05C0883F31F4809141
:1046500039028F7E8093390213C08D3F21F48091FF
:1046600037028E7F0BC08E3F21F4809137028D7F01
:1046700005C08F3F29F4809137028B7F80933702EA
:1046800080913A0281110EC080913B0281110AC0D3
:1046900080913C02811106C080913D02811102C0CF
:1046A00010923602089588E392E00E940D140E9451
:1046B0005E21909335028093340208951F93CF9327
:1046C000DF9380913402909135020E946A21AC01FF
:1046D00090913602992321F02091270130E006C005
:1046E000209128018AE0289F900111244217530746
:1046F00008F47BC080913A02C0913B02D0913C0209
:1047000010913D02811107C0C1116BC0D11169C068
:10471000111167C06AC09F3F19F09F5F90933602E6
:10472000181624F40E94E42180933A0280913A0200
:1047300087FF05C00E94E421819580933A021C16F0
:1047400024F40E94E42180933B0280913B0287FF86
:1047500005C00E94E421819580933B0230913A028A
:104760003323E1F020913B022223C1F045EB3403D7
:10477000C0011124992319F090933A0203C081E0FB
:1047800080933A0235EB2303C0011124992319F0D9
:1047900090933B0203C081E080933B021D1624F4FA
:1047A0000E942D2280933C0280913C0287FF05C02D
:1047B0000E942D22819580933C02111624F40E94C0
:1047C0002D2280933D0280913D0287FF05C00E940B
:1047D0002D22819580933D02DF91CF911F910C9402
:1047E00053239F3F09F099CFAACFDF91CF911F911B
:1047F0000895E8E3F2E086E0DF011D928A95E9F78B
:104800001092360210923702089580914602089560
:104810000F931F93CF93DF9300D01F92CDB7DEB7D6
:104820008C010E946226823011F0843021F584E0F0
:1048300089831B830A8382E08093E9008FEF909144
:10484000E800815095FD06C095ED9A95F1F70000BE
:104850008111F5CF8091E80085FF0DC040E050E068
:1048600063E070E0CE0101960E947F268091E8000F
:104870008E778093E8000F900F900F90DF91CF918B
:104880001F910F910895CF93DF9300D01F92CDB762
:10489000DEB72091A402243031F523E0298380582B
:1048A00091099B838A8382E08093E9008FEF909146
:1048B000E800815095FD06C095ED9A95F1F700004E
:1048C0008111F5CF8091E80085FF0DC040E050E0F8
:1048D00063E070E0CE0101960E947F268091E8009F
:1048E0008E778093E8000F900F900F90DF91CF911B
:1048F0000895CF93DF93EC010E946226823011F07D
:104900008430F9F482E08093E9008FEF9091E80021
:10491000815095FD06C095ED9A95F1F70000811143
:10492000F5CF8091E80085FF0CC040E050E066E0E4
:1049300070E0CE010E947F268091E8008E77809300
:10494000E800DF91CF910895CF93DF93EC010E94AF
:104950006226823011F0843039F581E08093E900DD
:104960008FEF9091E800815095FD06C095ED9A95E6
:10497000F1F700008111F5CF8091E80085FF14C0A8
:1049800040E050E068E070E0CE010E947F26809118
:10499000E8008E778093E80088E0FE01AEE3B2E0A5
:1049A00001900D928A95E1F7DF91CF910895809162
:1049B000A302811109C00E9410280E946D288091D5
:1049C000E20084608093E20008951092A3020895AB
:1049D000089508950C94242142E061EC81E00E9446
:1049E000892742E261EC82E00C9489278091A6023B
:1049F000833009F460C030F4813071F0823009F402
:104A000099C008958A3009F485C08B3009F46BC0D1
:104A1000893009F0A7C020C08091A502813A09F031
:104A2000A1C08091E800877F8093E8008091A9026F
:104A30009091AA02892B21F468E08EE392E003C0F2
:104A400060E080E090E070E00E94CA268091E8007B
:104A50008B778093E80008958091A502813209F058
:104A600081C08091A9029091AA02029708F07AC0B1
:104A70008091E800877F8093E8008091E80082FDC4
:104A800005C08091A4028111F8CF6CC02091F30081
:104A90008091F20090E0922B029729F48091F1002E
:104AA0008B7F813021F48091F100809346028091C8
:104AB000E8008B7753C08091A502813A09F052C07B
:104AC0008091A9029091AA02892B09F04BC0809194
:104AD000E800877F8093E8008091E80080FFFCCFAA
:104AE0008091330136C08091A5028132D9F5809141
:104AF000A9029091AA02892BA9F58091E800877FED
:104B00008093E8000E94BE278091A7028093330122
:104B10000C9487198091A502813221F58091E800DB
:104B2000877F8093E8000E94BE278091A80280932F
:104B3000470208958091A502813AA1F48091E8008E
:104B4000877F8093E8008091E80080FFFCCF809110
:104B500047028093F1008091E8008E778093E8000F
:104B60000C94BE27089584B7877F84BF0FB6F8944E
:104B7000A895809160008861809360001092600029
:104B80000FBE80E880936100109261000E9455146E
:104B90000E9410280E946D288091E200846080931A
:104BA000E20078940E94022B0E945B1489E291E05B
:104BB0000E94F1138091A402853069F40E94F220D2
:104BC0008091A2028823B1F30E94DA20882391F316
:104BD0000E946926EFCF0E9465140E948110EACFDF
:104BE0000C94F225292F332723303105C9F060F4C6
:104BF0002130310581F02230310509F04AC08BE3C4
:104C000090E02DEB35E049C02132310511F122321F
:104C1000310579F13EC082E190E028EF35E03DC0FA
:104C200099278130910561F040F08230910559F06B
:104C3000039779F5E1E9F5E008C0E9EBF5E005C097
:104C4000EBEAF5E002C0E7E9F5E0849190E09F012E
:104C500024C06115710541F061307105D1F489E01E
:104C600090E028EE35E019C089E090E02FEC35E0C7
:104C700014C06115710541F06130710551F485E88A
:104C800090E02AE036E009C080E490E02FE836E0CA
:104C900004C080E090E020E030E0FA01318320831E
:104CA00008950895CF93C82F0E945126C0934802BB
:104CB000CF9108958091A402843011F081E008958D
:104CC00082E0089580914802811102C00C945A2616
:104CD000089580E189BD82E189BD09B400FEFDCF60
:104CE0008091D8008F7D8093D8008091E000826011
:104CF0008093E0008091E00081FDFCCF0895CF9289
:104D0000DF92EF92FF920F931F93CF93DF93EC010B
:104D10008B017A010E94DD27811133C0E114F10477
:104D200039F0F70180819181081B190BC80FD91F39
:104D3000C12CD12C0115110519F18091E80085FDD8
:104D400016C08091E8008E778093E800E114F104AA
:104D500049F0F70180819181C80ED91ED182C082AD
:104D600085E00FC00E94DD27882321F30AC08991C6
:104D70008093F10001501109FFEFCF1ADF0ADACF5B
:104D800080E0DF91CF911F910F91FF90EF90DF9026
:104D9000CF9008952091AB023091AC0226173707CF
:104DA00048F06115710539F42091E8002E772093C1
:104DB000E80001C0B901FC0120E06115710579F13D
:104DC0008091A4028823F1F18530F1F18091E8000F
:104DD00083FD3CC08091E80082FD2EC08091E800F8
:104DE00080FFEBCF2091F3008091F20090E0922BB6
:104DF0006115710551F08830910538F421912093A7
:104E0000F100615071090196F3CF21E0089709F094
:104E100020E08091E8008E778093E800CECF2111CA
:104E2000CFCF0AC08091A402882361F0853061F061
:104E30008091E80083FD0AC08091E80082FFF2CFF4
:104E400080E0089582E0089583E0089581E0089568
:104E50002091AB023091AC022617370748F061155C
:104E6000710539F42091E8002E772093E80001C005
:104E7000B901FC0120E06115710591F18091A40256
:104E8000882309F440C0853009F43FC08091E800D0
:104E900083FD3DC08091E80082FD2FC08091E80035
:104EA00080FFE9CF2091F3008091F20090E0922BF7
:104EB0006115710559F08830910540F424912093D3
:104EC000F1003196615071090196F2CF21E0089707
:104ED00009F020E08091E8008E778093E800CBCF46
:104EE0002111CCCF0AC08091A402882361F08530C3
:104EF00061F08091E80083FD0AC08091E80082FFA4
:104F0000F2CF80E0089582E0089583E0089581E083
:104F10000895982F973068F59093E900981739F025
:104F20007091EC002091ED005091F00003C0242F0F
:104F3000762F50E021FD02C09F5FECCF3091EB0057
:104F40003E7F3093EB003091ED003D7F3093ED00DC
:104F50003091EB0031603093EB007093EC002093C4
:104F6000ED005093F0002091EE0027FDE5CF80E0AA
:104F700008958F708093E90081E008958091A502E3
:104F800087FF11C08091E80082FD05C08091A402D6
:104F90008111F8CF11C08091E8008B770BC0809110
:104FA000A402882349F08091E80080FFF8CF809127
:104FB000E8008E778093E80008952091E400309116
:104FC000E50095E64091EC00842F817040FF23C0FE
:104FD0008091E80080FD1DC08091A402882399F093
:104FE000853099F08091EB0085FD11C04091E4007F
:104FF0005091E5002417350729F3915011F09A01DB
:10500000E1CF84E0089582E0089583E0089581E08F
:10501000089580E008954091E80042FFDDCF0895B3
:105020000E947E280E948628E0EEF0E08081816068
:105030008083E8EDF0E080818F77808319BCA7ED55
:10504000B0E08C918E7F8C9380818F7E80831092D4
:10505000A30208950F931F93CF93DF930E947E289E
:105060000E948628C8EDD0E088818F778883888168
:105070008068888388818F7D888319BC1092A40200
:105080001092A0021092A2021092A10200EE10E073
:10509000F80180818B7F808388818160888342E0F2
:1050A00060E080E00E948927E1EEF0E080818E7F61
:1050B0008083E2EEF0E0808181608083808188607F
:1050C0008083F80180818E7F8083888180618883DE
:1050D000DF91CF911F910F910895E8EDF0E080816D
:1050E0008F7E8083E7EDF0E080818160808384E0C3
:1050F00082BF81E08093A3020C942A28E8EDF0E0BF
:1051000080818E7F80831092E20008951092DA00F1
:105110001092E10008951F920F920FB60F92112482
:105120002F933F934F935F936F937F938F939F93AF
:10513000AF93BF93EF93FF938091E10082FF0BC089
:105140008091E20082FF07C08091E1008B7F809315
:10515000E1000E94012B8091DA0080FF1FC0809146
:10516000D80080FF1BC08091DA008E7F8093DA0028
:105170008091D90080FF0DC080E189BD82E189BDA9
:1051800009B400FEFDCF81E08093A4020E94D724E1
:1051900005C019BC1092A4020E94E5248091E10090
:1051A00080FF19C08091E20080FF15C08091E2006D
:1051B0008E7F8093E2008091E20080618093E20024
:1051C0008091D80080628093D80019BC85E08093DC
:1051D000A4020E94E9248091E10084FF30C0809104
:1051E000E20084FF2CC080E189BD82E189BD09B461
:1051F00000FEFDCF8091D8008F7D8093D8008091F4
:10520000E1008F7E8093E1008091E2008F7E8093A9
:10521000E2008091E20081608093E2008091A00230
:10522000882311F084E007C08091E30087FD02C06D
:1052300081E001C083E08093A4020E94EA2480916F
:10524000E10083FF29C08091E20083FF25C08091A7
:10525000E100877F8093E10082E08093A4021092B6
:10526000A0028091E1008E7F8093E1008091E200B6
:105270008E7F8093E2008091E20080618093E20063
:1052800042E060E080E00E9489278091F000886021
:105290008093F0000E94E824FF91EF91BF91AF91BD
:1052A0009F918F917F916F915F914F913F912F913E
:1052B0000F900FBE0F901F9018951F920F920FB670
:1052C0000F9211242F933F934F935F936F937F938C
:1052D0008F939F93AF93BF93CF93DF93EF93FF93FE
:1052E000C091E900CF708091EC00D82FD17080FD83
:1052F000D0E81092E9008091F000877F8093F00061
:1053000078940E94A1291092E9008091F0008860B1
:105310008093F000CD2BCF70C093E900FF91EF9107
:10532000DF91CF91BF91AF919F918F917F916F91BD
:105330005F914F913F912F910F900FBE0F901F9053
:1053400018951F93CF93DF93CDB7DEB7AA970FB60B
:10535000F894DEBF0FBECDBFE5EAF2E08091F10028
:10536000819322E0ED3AF207C9F70E94F62480917A
:10537000E80083FF2EC18091A5029091A602492FDB
:1053800050E04A30510508F024C1FA01E556FF4FBC
:105390000C94452B803821F0823809F01AC108C0DE
:1053A0008091A1029091A202992389F082600FC09E
:1053B0008091A9028F70873008F00BC18093E900BB
:1053C0008091EB0085FB882780F91092E90090918D
:1053D000E800977F9093E8008093F1001092F1002D
:1053E000D1C0282F2D7F09F0F4C0882319F0823016
:1053F00061F0EFC08091A702813009F0EAC09330DC
:1054000009F080E08093A2022EC08091A702811152
:105410002AC08091A9028F702FEF280F263008F044
:10542000D8C08093E9002091EB0020FF1CC093308E
:1054300021F48091EB00806214C09091EB009061A8
:105440009093EB0021E030E0A90102C0440F551F0A
:105450008A95E2F74093EA001092EA008091EB000F
:1054600088608093EB001092E9008091E800877FCC
:105470008093E8000E94BE27ACC08111AAC01091A1
:10548000A7021F778091E3008078812B8093E3004F
:105490008091E800877F8093E8000E94BE2780917A
:1054A000E80080FFFCCF8091E30080688093E300F8
:1054B000111102C082E001C083E08093A40289C080
:1054C0008058823008F085C08091A7029091A80290
:1054D0008C3D53E0950779F583E08A838AE28983DE
:1054E0004FB7F894DE01139620E03EE051E2E32F3F
:1054F000F0E050935700E49120FF03C0E295EF7075
:105500003F5FEF708E2F90E0EA3010F0C79601C039
:10551000C0968D939D932F5F243149F74FBF8091A3
:10552000E800877F8093E8006AE270E0CE01019690
:105530000E94CA2616C06091A9027091AA02AE010B
:105540004F5F5F4F0E94F025BC01892B09F441C0D9
:105550009091E800977F9093E80089819A810E945A
:1055600028278091E8008B778093E80032C080384C
:1055700081F58091E800877F8093E8008091A00208
:105580008093F1008091E8008E7772CF811121C065
:105590008091A7029091A80299270297D4F4809154
:1055A000E800877F8093E8008091A7028093A002A3
:1055B0000E94BE278091A002811106C08091E30065
:1055C00087FD02C081E001C084E08093A4020E94B4
:1055D000EC248091E80083FF0AC08091E800877F77
:1055E0008093E8008091EB0080628093EB00AA96A4
:1055F0000FB6F894DEBF0FBECDBFDF91CF911F91E4
:1056000008950895CF938091A4028823A1F0C091BA
:10561000E900CF709091EC00892F817090FD80E8B7
:10562000C82B1092E9008091E80083FD0E94A12917
:10563000CF70C093E900CF910895AA1BBB1B51E125
:1056400007C0AA1FBB1FA617B70710F0A61BB70BF2
:10565000881F991F5A95A9F780959095BC01CD0197
:10566000089597FB072E16F4009407D077FD09D014
:105670000E941D2B07FC05D03EF4909581959F4F0D
:105680000895709561957F4F0895EE0FFF1F059067
:10569000F491E02D0994FC014150504030F001900C
:1056A0000616D1F73197CF010895882799270895D5
:1056B000F999FECF92BD81BDF89A992780B50895DA
:1056C000A6E1B0E044E050E00C94922BA8E1B0E0F9
:1056D00042E050E00C94922B262FF999FECF92BD18
:1056E00081BDF89A019700B4021639F01FBA20BDA7
:1056F0000FB6F894FA9AF99A0FBE08950396272FD9
:105700000E946D2B0E946C2B252F0E946D2B242F45
:105710000C946D2B0196272F0E946D2B0C946C2BF3
:10572000DC01CB01FC01F999FECF06C0F2BDE1BD61
:10573000F89A319600B40D9241505040B8F7089550
:04574000F894FFCF0B
:10574400017F0100800105800185010886010000B8
:1057540000010218181801191A1B1C1D1E1F2021F4
:105764002227022808140A321E0524A4247924437B
:1057740024082401F4F5F6F73133329497C634350E
:1057840000000000000001020202020606060909E8
:10579400090909090F0F0F0F0F0F151515181919FE
:0A57A40019191919191919192324EC
:00000001FF
